{
  "_format": "hh-sol-artifact-1",
  "contractName": "PollsContract",
  "sourceName": "contracts/PollsContract.sol",
  "abi": [
    {
      "inputs": [],
      "stateMutability": "nonpayable",
      "type": "constructor"
    },
    {
      "inputs": [
        {
          "internalType": "address",
          "name": "target",
          "type": "address"
        }
      ],
      "name": "AddressEmptyCode",
      "type": "error"
    },
    {
      "inputs": [
        {
          "internalType": "address",
          "name": "implementation",
          "type": "address"
        }
      ],
      "name": "ERC1967InvalidImplementation",
      "type": "error"
    },
    {
      "inputs": [],
      "name": "ERC1967NonPayable",
      "type": "error"
    },
    {
      "inputs": [],
      "name": "FailedCall",
      "type": "error"
    },
    {
      "inputs": [],
      "name": "InvalidInitialization",
      "type": "error"
    },
    {
      "inputs": [],
      "name": "NotInitializing",
      "type": "error"
    },
    {
      "inputs": [
        {
          "internalType": "address",
          "name": "owner",
          "type": "address"
        }
      ],
      "name": "OwnableInvalidOwner",
      "type": "error"
    },
    {
      "inputs": [
        {
          "internalType": "address",
          "name": "account",
          "type": "address"
        }
      ],
      "name": "OwnableUnauthorizedAccount",
      "type": "error"
    },
    {
      "inputs": [],
      "name": "ReentrancyGuardReentrantCall",
      "type": "error"
    },
    {
      "inputs": [
        {
          "internalType": "address",
          "name": "token",
          "type": "address"
        }
      ],
      "name": "SafeERC20FailedOperation",
      "type": "error"
    },
    {
      "inputs": [],
      "name": "UUPSUnauthorizedCallContext",
      "type": "error"
    },
    {
      "inputs": [
        {
          "internalType": "bytes32",
          "name": "slot",
          "type": "bytes32"
        }
      ],
      "name": "UUPSUnsupportedProxiableUUID",
      "type": "error"
    },
    {
      "anonymous": false,
      "inputs": [
        {
          "indexed": true,
          "internalType": "uint256",
          "name": "pollId",
          "type": "uint256"
        },
        {
          "indexed": false,
          "internalType": "enum PollsContract.DistributionMode",
          "name": "mode",
          "type": "uint8"
        },
        {
          "indexed": false,
          "internalType": "uint256",
          "name": "timestamp",
          "type": "uint256"
        }
      ],
      "name": "DistributionModeSet",
      "type": "event"
    },
    {
      "anonymous": false,
      "inputs": [
        {
          "indexed": true,
          "internalType": "uint256",
          "name": "pollId",
          "type": "uint256"
        },
        {
          "indexed": true,
          "internalType": "address",
          "name": "recipient",
          "type": "address"
        },
        {
          "indexed": false,
          "internalType": "address",
          "name": "token",
          "type": "address"
        },
        {
          "indexed": false,
          "internalType": "uint256",
          "name": "amount",
          "type": "uint256"
        }
      ],
      "name": "FundsWithdrawn",
      "type": "event"
    },
    {
      "anonymous": false,
      "inputs": [
        {
          "indexed": false,
          "internalType": "uint64",
          "name": "version",
          "type": "uint64"
        }
      ],
      "name": "Initialized",
      "type": "event"
    },
    {
      "anonymous": false,
      "inputs": [
        {
          "indexed": true,
          "internalType": "address",
          "name": "previousOwner",
          "type": "address"
        },
        {
          "indexed": true,
          "internalType": "address",
          "name": "newOwner",
          "type": "address"
        }
      ],
      "name": "OwnershipTransferred",
      "type": "event"
    },
    {
      "anonymous": false,
      "inputs": [
        {
          "indexed": true,
          "internalType": "uint256",
          "name": "pollId",
          "type": "uint256"
        },
        {
          "indexed": true,
          "internalType": "address",
          "name": "creator",
          "type": "address"
        },
        {
          "indexed": false,
          "internalType": "string",
          "name": "question",
          "type": "string"
        },
        {
          "indexed": false,
          "internalType": "uint256",
          "name": "endTime",
          "type": "uint256"
        }
      ],
      "name": "PollCreated",
      "type": "event"
    },
    {
      "anonymous": false,
      "inputs": [
        {
          "indexed": true,
          "internalType": "uint256",
          "name": "pollId",
          "type": "uint256"
        },
        {
          "indexed": true,
          "internalType": "address",
          "name": "funder",
          "type": "address"
        },
        {
          "indexed": false,
          "internalType": "address",
          "name": "token",
          "type": "address"
        },
        {
          "indexed": false,
          "internalType": "uint256",
          "name": "amount",
          "type": "uint256"
        }
      ],
      "name": "PollFunded",
      "type": "event"
    },
    {
      "anonymous": false,
      "inputs": [
        {
          "indexed": true,
          "internalType": "uint256",
          "name": "pollId",
          "type": "uint256"
        },
        {
          "indexed": false,
          "internalType": "uint256",
          "name": "timestamp",
          "type": "uint256"
        }
      ],
      "name": "PollPaused",
      "type": "event"
    },
    {
      "anonymous": false,
      "inputs": [
        {
          "indexed": true,
          "internalType": "uint256",
          "name": "pollId",
          "type": "uint256"
        },
        {
          "indexed": false,
          "internalType": "uint256",
          "name": "timestamp",
          "type": "uint256"
        }
      ],
      "name": "PollResumed",
      "type": "event"
    },
    {
      "anonymous": false,
      "inputs": [
        {
          "indexed": true,
          "internalType": "uint256",
          "name": "pollId",
          "type": "uint256"
        },
        {
          "indexed": true,
          "internalType": "enum PollsContract.PollStatus",
          "name": "oldStatus",
          "type": "uint8"
        },
        {
          "indexed": true,
          "internalType": "enum PollsContract.PollStatus",
          "name": "newStatus",
          "type": "uint8"
        },
        {
          "indexed": false,
          "internalType": "uint256",
          "name": "timestamp",
          "type": "uint256"
        }
      ],
      "name": "PollStatusChanged",
      "type": "event"
    },
    {
      "anonymous": false,
      "inputs": [
        {
          "indexed": true,
          "internalType": "uint256",
          "name": "pollId",
          "type": "uint256"
        },
        {
          "indexed": true,
          "internalType": "address",
          "name": "claimer",
          "type": "address"
        },
        {
          "indexed": false,
          "internalType": "uint256",
          "name": "amount",
          "type": "uint256"
        },
        {
          "indexed": false,
          "internalType": "address",
          "name": "token",
          "type": "address"
        },
        {
          "indexed": false,
          "internalType": "uint256",
          "name": "timestamp",
          "type": "uint256"
        }
      ],
      "name": "RewardClaimed",
      "type": "event"
    },
    {
      "anonymous": false,
      "inputs": [
        {
          "indexed": true,
          "internalType": "uint256",
          "name": "pollId",
          "type": "uint256"
        },
        {
          "indexed": true,
          "internalType": "address",
          "name": "recipient",
          "type": "address"
        },
        {
          "indexed": false,
          "internalType": "uint256",
          "name": "amount",
          "type": "uint256"
        },
        {
          "indexed": false,
          "internalType": "address",
          "name": "token",
          "type": "address"
        },
        {
          "indexed": false,
          "internalType": "uint256",
          "name": "timestamp",
          "type": "uint256"
        }
      ],
      "name": "RewardDistributed",
      "type": "event"
    },
    {
      "anonymous": false,
      "inputs": [
        {
          "indexed": true,
          "internalType": "address",
          "name": "token",
          "type": "address"
        },
        {
          "indexed": false,
          "internalType": "bool",
          "name": "status",
          "type": "bool"
        }
      ],
      "name": "TokenWhitelisted",
      "type": "event"
    },
    {
      "anonymous": false,
      "inputs": [
        {
          "indexed": true,
          "internalType": "address",
          "name": "implementation",
          "type": "address"
        }
      ],
      "name": "Upgraded",
      "type": "event"
    },
    {
      "anonymous": false,
      "inputs": [
        {
          "indexed": true,
          "internalType": "uint256",
          "name": "pollId",
          "type": "uint256"
        },
        {
          "indexed": true,
          "internalType": "address",
          "name": "voter",
          "type": "address"
        },
        {
          "indexed": false,
          "internalType": "uint256",
          "name": "optionIndex",
          "type": "uint256"
        }
      ],
      "name": "Voted",
      "type": "event"
    },
    {
      "inputs": [],
      "name": "MAX_POLL_DURATION",
      "outputs": [
        {
          "internalType": "uint256",
          "name": "",
          "type": "uint256"
        }
      ],
      "stateMutability": "view",
      "type": "function"
    },
    {
      "inputs": [],
      "name": "MIN_POLL_DURATION",
      "outputs": [
        {
          "internalType": "uint256",
          "name": "",
          "type": "uint256"
        }
      ],
      "stateMutability": "view",
      "type": "function"
    },
    {
      "inputs": [],
      "name": "UPGRADE_INTERFACE_VERSION",
      "outputs": [
        {
          "internalType": "string",
          "name": "",
          "type": "string"
        }
      ],
      "stateMutability": "view",
      "type": "function"
    },
    {
      "inputs": [
        {
          "internalType": "uint256",
          "name": "pollId",
          "type": "uint256"
        }
      ],
      "name": "closePoll",
      "outputs": [],
      "stateMutability": "nonpayable",
      "type": "function"
    },
    {
      "inputs": [
        {
          "internalType": "string",
          "name": "question",
          "type": "string"
        },
        {
          "internalType": "string[]",
          "name": "options",
          "type": "string[]"
        },
        {
          "internalType": "uint256",
          "name": "duration",
          "type": "uint256"
        },
        {
          "internalType": "address",
          "name": "fundingToken",
          "type": "address"
        },
        {
          "internalType": "enum PollsContract.FundingType",
          "name": "fundingType",
          "type": "uint8"
        }
      ],
      "name": "createPoll",
      "outputs": [
        {
          "internalType": "uint256",
          "name": "",
          "type": "uint256"
        }
      ],
      "stateMutability": "nonpayable",
      "type": "function"
    },
    {
      "inputs": [
        {
          "internalType": "uint256",
          "name": "pollId",
          "type": "uint256"
        },
        {
          "internalType": "address",
          "name": "token",
          "type": "address"
        },
        {
          "internalType": "address[]",
          "name": "recipients",
          "type": "address[]"
        },
        {
          "internalType": "uint256[]",
          "name": "amounts",
          "type": "uint256[]"
        }
      ],
      "name": "distributeRewards",
      "outputs": [],
      "stateMutability": "nonpayable",
      "type": "function"
    },
    {
      "inputs": [
        {
          "internalType": "uint256",
          "name": "pollId",
          "type": "uint256"
        }
      ],
      "name": "fundPollWithETH",
      "outputs": [],
      "stateMutability": "payable",
      "type": "function"
    },
    {
      "inputs": [
        {
          "internalType": "uint256",
          "name": "pollId",
          "type": "uint256"
        },
        {
          "internalType": "address",
          "name": "token",
          "type": "address"
        },
        {
          "internalType": "uint256",
          "name": "amount",
          "type": "uint256"
        }
      ],
      "name": "fundPollWithToken",
      "outputs": [],
      "stateMutability": "nonpayable",
      "type": "function"
    },
    {
      "inputs": [],
      "name": "getActivePolls",
      "outputs": [
        {
          "internalType": "uint256[]",
          "name": "",
          "type": "uint256[]"
        }
      ],
      "stateMutability": "view",
      "type": "function"
    },
    {
      "inputs": [
        {
          "internalType": "uint256",
          "name": "pollId",
          "type": "uint256"
        }
      ],
      "name": "getDistributionMode",
      "outputs": [
        {
          "internalType": "enum PollsContract.DistributionMode",
          "name": "",
          "type": "uint8"
        }
      ],
      "stateMutability": "view",
      "type": "function"
    },
    {
      "inputs": [
        {
          "internalType": "uint256",
          "name": "pollId",
          "type": "uint256"
        }
      ],
      "name": "getPoll",
      "outputs": [
        {
          "internalType": "uint256",
          "name": "id",
          "type": "uint256"
        },
        {
          "internalType": "string",
          "name": "question",
          "type": "string"
        },
        {
          "internalType": "string[]",
          "name": "options",
          "type": "string[]"
        },
        {
          "internalType": "uint256[]",
          "name": "votes",
          "type": "uint256[]"
        },
        {
          "internalType": "uint256",
          "name": "endTime",
          "type": "uint256"
        },
        {
          "internalType": "bool",
          "name": "isActive",
          "type": "bool"
        },
        {
          "internalType": "address",
          "name": "creator",
          "type": "address"
        },
        {
          "internalType": "uint256",
          "name": "totalFunding",
          "type": "uint256"
        },
        {
          "internalType": "enum PollsContract.DistributionMode",
          "name": "distributionMode",
          "type": "uint8"
        },
        {
          "internalType": "address",
          "name": "fundingToken",
          "type": "address"
        },
        {
          "internalType": "enum PollsContract.FundingType",
          "name": "fundingType",
          "type": "uint8"
        },
        {
          "internalType": "enum PollsContract.PollStatus",
          "name": "status",
          "type": "uint8"
        },
        {
          "internalType": "enum PollsContract.PollStatus",
          "name": "previousStatus",
          "type": "uint8"
        }
      ],
      "stateMutability": "view",
      "type": "function"
    },
    {
      "inputs": [
        {
          "internalType": "uint256",
          "name": "pollId",
          "type": "uint256"
        },
        {
          "internalType": "address",
          "name": "token",
          "type": "address"
        }
      ],
      "name": "getPollTokenBalance",
      "outputs": [
        {
          "internalType": "uint256",
          "name": "",
          "type": "uint256"
        }
      ],
      "stateMutability": "view",
      "type": "function"
    },
    {
      "inputs": [
        {
          "internalType": "uint256",
          "name": "pollId",
          "type": "uint256"
        },
        {
          "internalType": "address",
          "name": "user",
          "type": "address"
        }
      ],
      "name": "getUserFunding",
      "outputs": [
        {
          "internalType": "uint256",
          "name": "",
          "type": "uint256"
        }
      ],
      "stateMutability": "view",
      "type": "function"
    },
    {
      "inputs": [
        {
          "internalType": "uint256",
          "name": "pollId",
          "type": "uint256"
        },
        {
          "internalType": "address",
          "name": "user",
          "type": "address"
        }
      ],
      "name": "hasUserVoted",
      "outputs": [
        {
          "internalType": "bool",
          "name": "",
          "type": "bool"
        }
      ],
      "stateMutability": "view",
      "type": "function"
    },
    {
      "inputs": [],
      "name": "initialize",
      "outputs": [],
      "stateMutability": "nonpayable",
      "type": "function"
    },
    {
      "inputs": [
        {
          "internalType": "uint256",
          "name": "pollId",
          "type": "uint256"
        }
      ],
      "name": "isPollActive",
      "outputs": [
        {
          "internalType": "bool",
          "name": "",
          "type": "bool"
        }
      ],
      "stateMutability": "view",
      "type": "function"
    },
    {
      "inputs": [
        {
          "internalType": "uint256",
          "name": "startPollId",
          "type": "uint256"
        },
        {
          "internalType": "uint256",
          "name": "endPollId",
          "type": "uint256"
        }
      ],
      "name": "migratePolls",
      "outputs": [],
      "stateMutability": "nonpayable",
      "type": "function"
    },
    {
      "inputs": [],
      "name": "nextPollId",
      "outputs": [
        {
          "internalType": "uint256",
          "name": "",
          "type": "uint256"
        }
      ],
      "stateMutability": "view",
      "type": "function"
    },
    {
      "inputs": [],
      "name": "owner",
      "outputs": [
        {
          "internalType": "address",
          "name": "",
          "type": "address"
        }
      ],
      "stateMutability": "view",
      "type": "function"
    },
    {
      "inputs": [
        {
          "internalType": "uint256",
          "name": "pollId",
          "type": "uint256"
        }
      ],
      "name": "pausePoll",
      "outputs": [],
      "stateMutability": "nonpayable",
      "type": "function"
    },
    {
      "inputs": [
        {
          "internalType": "uint256",
          "name": "",
          "type": "uint256"
        },
        {
          "internalType": "address",
          "name": "",
          "type": "address"
        }
      ],
      "name": "pollTokenBalances",
      "outputs": [
        {
          "internalType": "uint256",
          "name": "",
          "type": "uint256"
        }
      ],
      "stateMutability": "view",
      "type": "function"
    },
    {
      "inputs": [
        {
          "internalType": "uint256",
          "name": "",
          "type": "uint256"
        }
      ],
      "name": "polls",
      "outputs": [
        {
          "internalType": "uint256",
          "name": "id",
          "type": "uint256"
        },
        {
          "internalType": "string",
          "name": "question",
          "type": "string"
        },
        {
          "internalType": "uint256",
          "name": "endTime",
          "type": "uint256"
        },
        {
          "internalType": "bool",
          "name": "isActive",
          "type": "bool"
        },
        {
          "internalType": "address",
          "name": "creator",
          "type": "address"
        },
        {
          "internalType": "uint256",
          "name": "totalFunding",
          "type": "uint256"
        },
        {
          "internalType": "enum PollsContract.DistributionMode",
          "name": "distributionMode",
          "type": "uint8"
        },
        {
          "internalType": "address",
          "name": "fundingToken",
          "type": "address"
        },
        {
          "internalType": "enum PollsContract.FundingType",
          "name": "fundingType",
          "type": "uint8"
        },
        {
          "internalType": "enum PollsContract.PollStatus",
          "name": "status",
          "type": "uint8"
        },
        {
          "internalType": "enum PollsContract.PollStatus",
          "name": "previousStatus",
          "type": "uint8"
        }
      ],
      "stateMutability": "view",
      "type": "function"
    },
    {
      "inputs": [],
      "name": "proxiableUUID",
      "outputs": [
        {
          "internalType": "bytes32",
          "name": "",
          "type": "bytes32"
        }
      ],
      "stateMutability": "view",
      "type": "function"
    },
    {
      "inputs": [],
      "name": "renounceOwnership",
      "outputs": [],
      "stateMutability": "nonpayable",
      "type": "function"
    },
    {
      "inputs": [
        {
          "internalType": "uint256",
          "name": "pollId",
          "type": "uint256"
        }
      ],
      "name": "resumePoll",
      "outputs": [],
      "stateMutability": "nonpayable",
      "type": "function"
    },
    {
      "inputs": [
        {
          "internalType": "uint256",
          "name": "pollId",
          "type": "uint256"
        },
        {
          "internalType": "enum PollsContract.DistributionMode",
          "name": "mode",
          "type": "uint8"
        }
      ],
      "name": "setDistributionMode",
      "outputs": [],
      "stateMutability": "nonpayable",
      "type": "function"
    },
    {
      "inputs": [
        {
          "internalType": "uint256",
          "name": "pollId",
          "type": "uint256"
        }
      ],
      "name": "setForClaiming",
      "outputs": [],
      "stateMutability": "nonpayable",
      "type": "function"
    },
    {
      "inputs": [
        {
          "internalType": "uint256",
          "name": "pollId",
          "type": "uint256"
        },
        {
          "internalType": "address",
          "name": "fundingToken",
          "type": "address"
        }
      ],
      "name": "setFundingToken",
      "outputs": [],
      "stateMutability": "nonpayable",
      "type": "function"
    },
    {
      "inputs": [
        {
          "internalType": "uint256",
          "name": "pollId",
          "type": "uint256"
        },
        {
          "internalType": "enum PollsContract.FundingType",
          "name": "fundingType",
          "type": "uint8"
        }
      ],
      "name": "setFundingType",
      "outputs": [],
      "stateMutability": "nonpayable",
      "type": "function"
    },
    {
      "inputs": [
        {
          "internalType": "address",
          "name": "newOwner",
          "type": "address"
        }
      ],
      "name": "transferOwnership",
      "outputs": [],
      "stateMutability": "nonpayable",
      "type": "function"
    },
    {
      "inputs": [
        {
          "internalType": "address",
          "name": "newImplementation",
          "type": "address"
        },
        {
          "internalType": "bytes",
          "name": "data",
          "type": "bytes"
        }
      ],
      "name": "upgradeToAndCall",
      "outputs": [],
      "stateMutability": "payable",
      "type": "function"
    },
    {
      "inputs": [
        {
          "internalType": "uint256",
          "name": "pollId",
          "type": "uint256"
        },
        {
          "internalType": "uint256",
          "name": "optionIndex",
          "type": "uint256"
        }
      ],
      "name": "vote",
      "outputs": [],
      "stateMutability": "nonpayable",
      "type": "function"
    },
    {
      "inputs": [
        {
          "internalType": "address",
          "name": "token",
          "type": "address"
        },
        {
          "internalType": "bool",
          "name": "status",
          "type": "bool"
        }
      ],
      "name": "whitelistToken",
      "outputs": [],
      "stateMutability": "nonpayable",
      "type": "function"
    },
    {
      "inputs": [
        {
          "internalType": "address",
          "name": "",
          "type": "address"
        }
      ],
      "name": "whitelistedTokens",
      "outputs": [
        {
          "internalType": "bool",
          "name": "",
          "type": "bool"
        }
      ],
      "stateMutability": "view",
      "type": "function"
    },
    {
      "inputs": [
        {
          "internalType": "uint256",
          "name": "pollId",
          "type": "uint256"
        },
        {
          "internalType": "address",
          "name": "recipient",
          "type": "address"
        },
        {
          "internalType": "address[]",
          "name": "tokens",
          "type": "address[]"
        }
      ],
      "name": "withdrawFunds",
      "outputs": [],
      "stateMutability": "nonpayable",
      "type": "function"
    }
  ],
  "bytecode": "0x60a08060405234620000d157306080527ff0c57e16840df040f15088dc2f81fe391c3923bec73e23a9662efc9c229c6a009081549060ff8260401c16620000c257506001600160401b036002600160401b0319828216016200007c575b6040516135e99081620000d78239608051818181611dbb0152611ecd0152f35b6001600160401b031990911681179091556040519081527fc7f505b2f371ae2175ee4913f4499e1f2633a7b5936321eed1cdaeb6115181d290602090a13880806200005c565b63f92ee8a960e01b8152600490fd5b600080fdfe6080604052600436101561001257600080fd5b60003560e01c80630242174314612d5d5780630b404a5314612d0f5780630ffb1d8b14612c8757806313910ea214612c3f57806317657c9b14612b0b5780631a8cbcaa146128f15780631bd3528e146126565780631c4bf2e6146121185780631d59fd78146120fb5780632b786571146120dd5780632ec15480146120855780634f1ef28614611e7e57806350af628214611e2557806352d1902d14611da857806356cf9b6114611d525780635a63e72714611675578063638e4efb146113e757806363a9492f146112e8578063715018a61461127e5780637f7c6214146110d95780638129fc1c14610f835780638da5cb5b14610f4d5780639534e63714610d8f578063ac2f007414610ca7578063ad3cb1cc14610c4b578063b384abef14610aba578063b394c5e614610859578063cde202c41461066e578063daf9c2101461062f578063dc296ae1146105d1578063dd9f9b61146103a6578063dfa8056a1461035e578063e238b76414610340578063e81e08de146101cd5763f2fde38b1461019d57600080fd5b346101c85760203660031901126101c8576101c66101b9612e04565b6101c16133a2565b61332e565b005b600080fd5b6020806003193601126101c8576004356101ea6003548210613072565b806000526000825261020660ff60056040600020015416613254565b80600052600082526102216004604060002001544210613295565b6102296133db565b341561030357600081815280835260409020600b0154610252906001600160a01b0316156132d2565b8060005260008252600660406000200161026d34825461318d565b905580600052600082526008604060002001336000528252604060002061029534825461318d565b90558060005260028252604060002060008052825260406000206102ba34825461318d565b9055604051916000835234908301527f3e231b10c827a2698b8e84aa3d395d37d5620225e01463563fd196b02ef77ec460403393a3600160008051602061359483398151915255005b60405162461bcd60e51b8152600481018390526015602482015274135d5cdd081cd95b9908115512081d1bc8199d5b99605a1b6044820152606490fd5b346101c85760003660031901126101c857602060405162278d008152f35b346101c85760403660031901126101c857610377612dee565b600435600052600260205260406000209060018060a01b03166000526020526020604060002054604051908152f35b346101c8576020806003193601126101c8576004356103c86003548210613072565b806000526000825260018060a01b038060056040600020015460081c1633149081156105b6575b501561055e57806000526000825260ff600b6040600020015460a81c1660048110156104d15760010361052357806000526000825260046040600020015442106104e7578060005260008252600b6040600020019061045660ff835460a81c16809361319a565b600081815280845260409020600b01805460ff60a81b1916600160a91b179081905560a81c60ff1660048110156104d1576104ad9082600052600085521560056040600020019060ff801983541691151516179055565b60048210156104d157600080516020613574833981519152600293604051428152a4005b634e487b7160e01b600052602160045260246000fd5b60405162461bcd60e51b8152600481018390526014602482015273141bdb1b081b5d5cdd081a185d9948195b99195960621b6044820152606490fd5b60405162461bcd60e51b8152600481018390526013602482015272141bdb1b081b5d5cdd0818994818db1bdcd959606a1b6044820152606490fd5b60405162461bcd60e51b815260048101839052602a60248201527f4f6e6c792063726561746f72206f72206f776e65722063616e2073657420666f6044820152697220636c61696d696e6760b01b6064820152608490fd5b905060008051602061355483398151915254163314836103ef565b346101c85760403660031901126101c8576004356105ed612dee565b906105fb6003548210613072565b600052600060205260096040600020019060018060a01b0316600052602052602060ff604060002054166040519015158152f35b346101c85760203660031901126101c8576001600160a01b03610650612e04565b166000526001602052602060ff604060002054166040519015158152f35b346101c8576020806003193601126101c857600435906106916003548310613072565b816000526000815260018060a01b038060056040600020015460081c16331490811561083e575b50156107ee57816000526000815260ff600b6040600020015460a81c1660048110156104d1576107aa578160005260008152600b6040600020019061070560ff835460a81c16809361319a565b600083815280825260409020600b01805460ff60a81b1916600360a81b179081905560a81c60ff1660048110156104d15761075c9084600052600083521560056040600020019060ff801983541691151516179055565b60048210156104d15760037fdb60f2dea048e4e773fc1838826049d2c8e6f4242ebcdecf7640a25175ff5924928460008051602061357483398151915284604051428152a4604051428152a2005b6064906040519062461bcd60e51b82526004820152601f60248201527f4f6e6c792061637469766520706f6c6c732063616e20626520706175736564006044820152fd5b6084906040519062461bcd60e51b825260048201526024808201527f4f6e6c792063726561746f72206f72206f776e65722063616e207061757365206044820152631c1bdb1b60e21b6064820152fd5b905060008051602061355483398151915254163314836106b8565b346101c85760603660031901126101c857600435610875612dee565b906044356108866003548310613072565b81600052602090600082526108a560ff60056040600020015416613254565b82600052600082526108c06004604060002001544210613295565b6108c86133db565b6001600160a01b0384811660008181526001855260409020549092919060ff1615610a7d578115610a385782610910918660005260008652600b6040600020015416146132d2565b604051916323b872dd60e01b848401523360248401523060448401528160648401526064835260a08301938385106001600160401b03861117610a225761097f610a0b947f3e231b10c827a2698b8e84aa3d395d37d5620225e01463563fd196b02ef77ec49660405283613447565b8560005260008152600660406000200161099a84825461318d565b90558560005260008152600860406000200133600052815260406000206109c284825461318d565b905585600052600281526040600020916000525260406000206109e682825461318d565b9055604080516001600160a01b03909616865260208601919091523394918291820190565b0390a3600160008051602061359483398151915255005b634e487b7160e01b600052604160045260246000fd5b60405162461bcd60e51b815260048101859052601d60248201527f416d6f756e74206d7573742062652067726561746572207468616e20300000006044820152606490fd5b60405162461bcd60e51b8152600481018590526015602482015274151bdad95b881b9bdd081dda1a5d195b1a5cdd1959605a1b6044820152606490fd5b346101c857610ac836612f7d565b90610ad66003548210613072565b80600052602060008152610af460ff60056040600020015416613254565b8160005260008152610b0f6004604060002001544210613295565b8160005260008152600260406000200154831015610c16578160005260008152600960406000200133600052815260ff60406000205416610be257816000526000815260096040600020013360005281526040600020600160ff1982541617905581600052600081526003604060002001908154841015610bcc577f1abe610cf2bf87e57dcc1181fcf5ac0934e843d8344ab9eed6e86c799f62585e91600052838160002001610bbf8154613135565b90556040519384523393a3005b634e487b7160e01b600052603260045260246000fd5b6064906040519062461bcd60e51b82526004820152600d60248201526c105b1c9958591e481d9bdd1959609a1b6044820152fd5b6064906040519062461bcd60e51b82526004820152600e60248201526d24b73b30b634b21037b83a34b7b760911b6044820152fd5b346101c85760003660031901126101c85760405160408101908082106001600160401b03831117610a2257610ca39160405260058152640352e302e360dc1b6020820152604051918291602083526020830190612e24565b0390f35b346101c85760203660031901126101c857600435600052600060205260406000208054610cd660018301612fcd565b91610ca3600482015491600581015460018060a01b03600683015492600b60ff600783015416910154938260ff8660a01c1694610d276040519b8c809c6020610160928392815201528c0190612e24565b9860408b015260ff8116151560608b015260081c16608089015260a0880152610d4f81612e1a565b60c0870152821660e0860152610d6481612e1a565b610100850152610d7e610120850160ff8360a81c16612e98565b60ff61014085019160b01c16612e98565b346101c8576020806003193601126101c857600435610db16003548210613072565b806000526000825260018060a01b038060056040600020015460081c163314908115610f32575b5015610ee157806000526000825260ff600b6040600020015460a81c1660048110156104d157600114610ea3578060005260008252600b60406000200190610e2860ff835460a81c16809361319a565b600081815280845260409020600b01805460ff60a81b1916600160a81b179081905560a81c60ff1660048110156104d157610e7f9082600052600085521560056040600020019060ff801983541691151516179055565b60048210156104d157600080516020613574833981519152600193604051428152a4005b60405162461bcd60e51b8152600481018390526016602482015275141bdb1b081a5cc8185b1c9958591e4818db1bdcd95960521b6044820152606490fd5b60405162461bcd60e51b8152600481018390526024808201527f4f6e6c792063726561746f72206f72206f776e65722063616e20636c6f7365206044820152631c1bdb1b60e21b6064820152608490fd5b90506000805160206135548339815191525416331483610dd8565b346101c85760003660031901126101c857600080516020613554833981519152546040516001600160a01b039091168152602090f35b346101c85760003660031901126101c8577ff0c57e16840df040f15088dc2f81fe391c3923bec73e23a9662efc9c229c6a00805460ff8160401c1615906001600160401b038116801590816110d1575b60011490816110c7575b1590816110be575b506110ac5767ffffffffffffffff19811660011783558161108d575b5061100a6134af565b6110126134af565b61101b3361332e565b6110236134af565b61102b6134af565b6001600080516020613594833981519152556110456134af565b600060035561105057005b68ff00000000000000001981541690557fc7f505b2f371ae2175ee4913f4499e1f2633a7b5936321eed1cdaeb6115181d2602060405160018152a1005b68ffffffffffffffffff19166801000000000000000117825582611001565b60405163f92ee8a960e01b8152600490fd5b90501584610fe5565b303b159150610fdd565b839150610fd3565b346101c8576110e736612f7d565b906110f06133a2565b81811015611249576003548211611204575b81811061110b57005b806000526000602052604060002090600b8201805460ff808260a81c1694600486101595866104d1571580159687826111ed575b61117d575b5050600501546001955016156111685750805461ffff60a81b191690555b01611102565b61ffff60a81b191660a884901b179055611162565b836005840154168092816111e1575b5082156111bd575b505060019650806111b4575b6111ab578780611144565b50505050611162565b508415156111a0565b159150816111d2575b50600196508880611194565b90506104d157600195886111c6565b9250600091508a61118c565b50838560b01c1660048110156104d157151561113f565b60405162461bcd60e51b815260206004820152601f60248201527f456e6420706f6c6c204944206578636565647320746f74616c20706f6c6c73006044820152606490fd5b60405162461bcd60e51b815260206004820152600d60248201526c496e76616c69642072616e676560981b6044820152606490fd5b346101c85760003660031901126101c8576112976133a2565b60008051602061355483398151915280546001600160a01b031981169091556000906001600160a01b03167f8be0079c531659141344cd1fd0a4f28419497f9722a3daafe3b4186f6b6457e08280a3005b346101c85760003660031901126101c8576003546000805b82811061139a57506113119061315b565b60009160005b8181106113345760405160208082528190610ca390820186612e64565b8060005260206000815260406000209060059160ff8382015416908161138c575b50611365575b5050600101611317565b9091948451811015610bcc578561138492826001951b87010152613135565b93908561135b565b600491500154421087611355565b806000526000602052604060002060ff60058201541690816113d9575b506113c5575b600101611300565b906113d1600191613135565b9190506113bd565b6004915001544210846113b7565b346101c85760603660031901126101c857600435611403612dee565b6044356001600160401b0381116101c857611422903690600401612ea5565b90926114316003548210613072565b6114396133db565b806000526020916000835260018060a01b038060056040600020015460081c163314801561165b575b1561160b57826000526000845260046040600020015442106115c65760005b82811061149c57600160008051602061359483398151915255005b60019084600052600280875288846114c26114bd85896040600020956131be565b6131ce565b1660005287528585858a8c8b6040600020549688886114eb575b50505050505050505001611481565b7f9467881c16409d70790ef2aa073424972ede02854453f7ff5036d66e860ee42f9661159b94611574946114bd948b6000528152604060002090896115346114bd8787876131be565b1660005252600060408120558a886115506114bd8686866131be565b166115ac57600080808061156f948c5af16115696131e2565b50613212565b6131be565b604080516001600160a01b0390921682526020820197909752919092169490918291820190565b0390a3888585858a8c8b86886114dc565b61156f90888a6115c06114bd8888886131be565b1661340b565b60405162461bcd60e51b815260048101859052601e60248201527f506f6c6c206d75737420626520656e64656420746f20776974686472617700006044820152606490fd5b60405162461bcd60e51b815260048101859052602260248201527f4f6e6c792063726561746f72206f72206f776e65722063616e20776974686472604482015261617760f01b6064820152608490fd5b508060008051602061355483398151915254163314611462565b346101c85760a03660031901126101c8576004356001600160401b0381116101c8576116a5903690600401612f48565b6024356001600160401b0381116101c857366023820112156101c8578060040135916116d083612f66565b916116de6040519384612ed5565b83835260208301906024829560051b820101903682116101c85760248101925b828410611d23575050606435949150506001600160a01b03841684036101c857600360843510156101c857815115611cde576002835110611c8f57600a835111611c3c57610e10604435101580611c2d575b15611bf0576001600160a01b038416158015611bce575b611770906130b4565b6003549261177d84613135565b60035583600052600060205260406000209184835583516001600160401b038111610a22576117af6001850154612f93565b601f8111611b99575b506020601f8211600114611b2d5790806117e892600091611b22575b508160011b916000199060031b1c19161790565b60018401555b815190600160401b8211610a22576002840154826002860155808310611aaa575b5090600284016000526020600020916000905b8282106119835750505050611837905161315b565b80516003830195916001600160401b038211610a2257600160401b8211610a22576020908754838955808410611966575b50019560005260206000209560005b8281106119525760208787817f9dbafd4116dcead87280b4bad16e92c851a647fbf87a77e05cf6b29c8fcdc33c8989600b6118b46044354261318d565b600484019081556005840180546001600160a81b0319163360081b610100600160a81b03161760011790556000600685015560078401805460ff19169055920180546001600160a01b0319166001600160a01b0390921691909117815561191d60843582613111565b805461ffff60a81b191690555460408051818152919461193f91830190612e24565b93868201528033940390a3604051908152f35b60019060208351930192818a015501611877565b61197d908960005284846000209182019101613144565b88611868565b80518051906001600160401b038211610a22576119a08654612f93565b601f8111611a6d575b50602090601f83116001146119fd57926119e3836001959460209487966000926119f2575b50508160011b916000199060031b1c19161790565b87555b01940191019092611822565b015190508f806119ce565b908660005260206000209160005b601f1985168110611a55575083602093600196938796938794601f19811610611a3c575b505050811b0187556119e6565b015160001960f88460031b161c191690558e8080611a2f565b91926020600181928685015181550194019201611a0b565b611a9a90876000526020600020601f850160051c81019160208610611aa0575b601f0160051c0190613144565b8b6119a9565b9091508190611a8d565b600285016000526020600020908382015b8183018110611acb57505061180f565b80611ad860019254612f93565b80611ae5575b5001611abb565b601f81118314611afb5750600081555b8b611ade565b600090828252611b19601f60208420920160051c8201858301613144565b81835555611af5565b9050860151896117d4565b906001850160005260206000206000925b601f1983168410611b81576001935082601f19811610611b68575b5050811b0160018401556117ee565b87015160001960f88460031b161c191690558880611b59565b87810151825560209384019360019092019101611b3e565b611bc890600186016000526020600020601f840160051c81019160208510611aa057601f0160051c0190613144565b876117b8565b506001600160a01b03841660009081526001602052604090205460ff16611767565b60405162461bcd60e51b815260206004820152601560248201527424b73b30b634b2103837b63610323ab930ba34b7b760591b6044820152606490fd5b5062278d006044351115611750565b60405162461bcd60e51b815260206004820152602560248201527f506f6c6c2063616e6e6f742068617665206d6f7265207468616e203130206f7060448201526474696f6e7360d81b6064820152608490fd5b60405162461bcd60e51b815260206004820152602160248201527f506f6c6c206d7573742068617665206174206c656173742032206f7074696f6e6044820152607360f81b6064820152608490fd5b60405162461bcd60e51b815260206004820152601860248201527f5175657374696f6e2063616e6e6f7420626520656d70747900000000000000006044820152606490fd5b83356001600160401b0381116101c857602091611d47839260243691870101612f48565b8152019301926116fe565b346101c85760403660031901126101c857600435611d6e612dee565b90611d7c6003548210613072565b600052600260205260406000209060018060a01b03166000526020526020604060002054604051908152f35b346101c85760003660031901126101c8577f00000000000000000000000000000000000000000000000000000000000000006001600160a01b03163003611e135760206040517f360894a13ba1a3210667c828492db98dca3e2076cc3735a920a3ca505d382bbc8152f35b60405163703e46dd60e11b8152600490fd5b346101c85760403660031901126101c857600435611e41612dee565b90611e4f6003548210613072565b600052600060205260086040600020019060018060a01b03166000526020526020604060002054604051908152f35b60403660031901126101c857611e92612e04565b6024356001600160401b0381116101c857366023820112156101c857611ec2903690602481600401359101612f11565b906001600160a01b037f00000000000000000000000000000000000000000000000000000000000000008116308114908115612057575b50611e1357611f066133a2565b8116906040516352d1902d60e01b8152602081600481865afa60009181612023575b50611f4657604051634c9c8ce360e01b815260048101849052602490fd5b7f360894a13ba1a3210667c828492db98dca3e2076cc3735a920a3ca505d382bbc9291929081810361200b5750823b15611ff25780546001600160a01b03191682179055604051907fbc7cd75a20ee27fd9adebab32041f755214dbc6bffa90cc0225b39da2e5c2d3b600080a2825115611fd957506000808360206101c695519101845af4611fd36131e2565b916134f0565b91505034611fe357005b63b398979f60e01b8152600490fd5b604051634c9c8ce360e01b815260048101839052602490fd5b60249060405190632a87526960e21b82526004820152fd5b9091506020813d60201161204f575b8161203f60209383612ed5565b810103126101c857519085611f28565b3d9150612032565b9050817f360894a13ba1a3210667c828492db98dca3e2076cc3735a920a3ca505d382bbc5416141584611ef9565b346101c85760203660031901126101c8576004356120a66003548210613072565b60005260006020526020604060002060ff60058201541690816120cf575b506040519015158152f35b6004915001544210826120c4565b346101c85760003660031901126101c8576020600354604051908152f35b346101c85760003660031901126101c8576020604051610e108152f35b346101c85760803660031901126101c857612131612dee565b6001600160401b036044358181116101c857612151903690600401612ea5565b9290916064359081116101c85761216c903690600401612ea5565b9361217c60035460043510613072565b6121846133db565b600435600052600060205260018060a01b0360056040600020015460081c1633148015612635575b156125db5760043560005260006020526004604060002001544210612585576004356000526000602052600160ff600760406000200154166121ed81612e1a565b14801561255c575b156124fc578481036124be57801561247a576000805b86811061245a57506004356000526002602052604060002060018060a01b038516600052602052604060002054106124155760005b81811061225b57600160008051602061359483398151915255005b6122668187856131be565b351561240d576004356000526002602052604060002060018060a01b03851660005260205260406000205461229c8288866131be565b35116123ba576122ad8187856131be565b35906004356000526002602052604060002060018060a01b038616600052602052604060002080549283818103116123a4576001930390556122f36114bd8285896131be565b6122fe8289876131be565b35838060a01b0387161560001461238e57600080808093612323955af16115696131e2565b6123316114bd8285896131be565b61233c8289876131be565b3590604051918252838060a01b0387166020830152426040830152838060a01b0316907f40ff55f580dfcbbcdccf65c1e06700d124f4190644783eca909a23f5b37b65ca606060043592a35b01612240565b61239f91848060a01b03881661340b565b612323565b634e487b7160e01b600052601160045260246000fd5b60405162461bcd60e51b815260206004820152602560248201527f496e73756666696369656e742062616c616e636520666f7220646973747269626044820152643aba34b7b760d91b6064820152608490fd5b600190612388565b60405162461bcd60e51b815260206004820152601a60248201527f496e73756666696369656e7420746f6b656e2062616c616e63650000000000006044820152606490fd5b9061247360019161246c848a886131be565b359061318d565b910161220b565b606460405162461bcd60e51b815260206004820152602060248201527f4d7573742068617665206174206c65617374206f6e6520726563697069656e746044820152fd5b60405162461bcd60e51b8152602060048201526016602482015275082e4e4c2f2e640d8cadccee8d040dad2e6dac2e8c6d60531b6044820152606490fd5b60405162461bcd60e51b815260206004820152603260248201527f446973747269627574696f6e206d6f6465206d757374206265204d414e55414c60448201527117d41554d2081bdc8810555513d35055115160721b6064820152608490fd5b506004356000526000602052600260ff6007604060002001541661257f81612e1a565b146121f5565b60405162461bcd60e51b815260206004820152602860248201527f506f6c6c206d75737420626520656e64656420746f2064697374726962757465604482015267207265776172647360c01b6064820152608490fd5b60405162461bcd60e51b815260206004820152602c60248201527f4f6e6c792063726561746f72206f72206f776e65722063616e2064697374726960448201526b62757465207265776172647360a01b6064820152608490fd5b50600080516020613554833981519152546001600160a01b031633146121ac565b346101c8576020806003193601126101c857600435906126796003548310613072565b816000526000815260018060a01b038060056040600020015460081c1633149081156128d6575b501561288457816000526000815260ff600b6040600020015460a81c1660048110156104d1576003036128415781600052600081526004604060002001544210156127fd57816000526000815260ff600b6040600020015460b01c169060048210156104d157600382146127f4575b8260005260008152600b6040600020019161273260ff845460a81c16809461319a565b8360005260008252600b60406000200160048210156104d157805460ff60a81b8360a81b169060ff60a81b1916179055836000526000825260ff600b6040600020015460a81c1660048110156104d1576127a89085600052600084521560056040600020019060ff801983541691151516179055565b60048310156104d1577f229fc85594800ec48ab3f1ef11b9275bbe2ef32ef63eac3ac3dabe23a548b4d5928460008051602061357483398151915284604051428152a4604051428152a2005b6000915061270f565b6064906040519062461bcd60e51b82526004820152601a60248201527f43616e6e6f7420726573756d65206578706972656420706f6c6c0000000000006044820152fd5b6064906040519062461bcd60e51b825280600483015260248201527f4f6e6c792070617573656420706f6c6c732063616e20626520726573756d65646044820152fd5b6084906040519062461bcd60e51b82526004820152602560248201527f4f6e6c792063726561746f72206f72206f776e65722063616e20726573756d65604482015264081c1bdb1b60da1b6064820152fd5b905060008051602061355483398151915254163314836126a0565b346101c8576020806003193601126101c85760ff906004356129166003548210613072565b600052600081526040600020908154916001916002820192600383019160048401549460058501549060018060a01b03946006870154938a6007890154169561296b81600b8b01549d8e60a01c169a01612fcd565b9184549261297884612f66565b936129866040519586612ed5565b8085528285018097600052836000206000915b838310612aeb575050505060405180958691848254918281520191600052846000209060005b818110612ad5575050506129f092916129d9910387612ed5565b6040519d8e6101a091815281858201520190612e24565b928c6040818603910152519081845280840193818360051b82010196946000915b848310612aa7575050505050505094610ca3969492612a3d838b9c988c606081879a9803910152612e64565b9860808b015260ff8116151560a08b015260081c1660c089015260e0880152612a6581612e1a565b6101008701528216610120860152612a7c81612e1a565b610140850152612a96610160850160ff8360a81c16612e98565b60ff61018085019160b01c16612e98565b90919293948480612ac483999b601f198682030187528c51612e24565b9a0193019301919594939290612a11565b82548452899450928601929187019187016129bf565b958086819998612afa85612fcd565b815201920192019190969596612999565b346101c85760403660031901126101c85760043560243560038110156101c857612b386003548310613072565b81600052600060205260018060a01b038060056040600020015460081c163314908115612c24575b5015612bc75760407febc8e2e3cc1c0ea11d2c53fea531218ede3b90bf14f750a73e457cbf95129d0a9183600052600060205260078260002001612ba382612e1a565b60ff1981541660ff8316179055815190612bbc81612e1a565b8152426020820152a2005b60405162461bcd60e51b815260206004820152602f60248201527f4f6e6c792063726561746f72206f72206f776e65722063616e2073657420646960448201526e73747269627574696f6e206d6f646560881b6064820152608490fd5b90506000805160206135548339815191525416331483612b60565b346101c85760203660031901126101c857600435612c606003548210613072565b6000526000602052602060ff6007604060002001541660405190612c8381612e1a565b8152f35b346101c85760403660031901126101c857612ca0612e04565b60243590811515908183036101c8577fef81a9943b96c8df4ef243401c9bf5159146166211356898b52d382086168d9291612d06602092612cdf6133a2565b60018060a01b031694856000526001845260406000209060ff801983541691151516179055565b604051908152a2005b346101c85760403660031901126101c85760043560243560038110156101c8576101c691612d3b6133a2565b612d486003548210613072565b6000526000602052600b604060002001613111565b346101c85760403660031901126101c857600435612d79612dee565b612d816133a2565b612d8e6003548310613072565b6001600160a01b03169081158015612dd6575b612daa906130b4565b6000526000602052600b604060002001906bffffffffffffffffffffffff60a01b825416179055600080f35b5060008281526001602052604090205460ff16612da1565b602435906001600160a01b03821682036101c857565b600435906001600160a01b03821682036101c857565b600311156104d157565b919082519283825260005b848110612e50575050826000602080949584010152601f8019910116010190565b602081830181015184830182015201612e2f565b90815180825260208080930193019160005b828110612e84575050505090565b835185529381019392810192600101612e76565b9060048210156104d15752565b9181601f840112156101c8578235916001600160401b0383116101c8576020808501948460051b0101116101c857565b90601f801991011681019081106001600160401b03821117610a2257604052565b6001600160401b038111610a2257601f01601f191660200190565b929192612f1d82612ef6565b91612f2b6040519384612ed5565b8294818452818301116101c8578281602093846000960137010152565b9080601f830112156101c857816020612f6393359101612f11565b90565b6001600160401b038111610a225760051b60200190565b60409060031901126101c8576004359060243590565b90600182811c92168015612fc3575b6020831014612fad57565b634e487b7160e01b600052602260045260246000fd5b91607f1691612fa2565b90604051918260008254612fe081612f93565b908184526020946001916001811690816000146130505750600114613011575b50505061300f92500383612ed5565b565b600090815285812095935091905b81831061303857505061300f9350820101388080613000565b8554888401850152948501948794509183019161301f565b9250505061300f94925060ff191682840152151560051b820101388080613000565b1561307957565b60405162461bcd60e51b8152602060048201526013602482015272141bdb1b08191bd95cc81b9bdd08195e1a5cdd606a1b6044820152606490fd5b156130bb57565b60405162461bcd60e51b815260206004820152602860248201527f46756e64696e6720746f6b656e206d75737420626520455448206f72207768696044820152671d195b1a5cdd195960c21b6064820152608490fd5b9061311b81612e1a565b815460ff60a01b191660a09190911b60ff60a01b16179055565b60001981146123a45760010190565b81811061314f575050565b60008155600101613144565b9061316582612f66565b6131726040519182612ed5565b8281528092613183601f1991612f66565b0190602036910137565b919082018092116123a457565b9060048110156104d157815460ff60b01b191660b09190911b60ff60b01b16179055565b9190811015610bcc5760051b0190565b356001600160a01b03811681036101c85790565b3d1561320d573d906131f382612ef6565b916132016040519384612ed5565b82523d6000602084013e565b606090565b1561321957565b60405162461bcd60e51b8152602060048201526013602482015272115512081d1c985b9cd9995c8819985a5b1959606a1b6044820152606490fd5b1561325b57565b60405162461bcd60e51b8152602060048201526012602482015271506f6c6c206973206e6f742061637469766560701b6044820152606490fd5b1561329c57565b60405162461bcd60e51b815260206004820152600e60248201526d141bdb1b081a185cc8195b99195960921b6044820152606490fd5b156132d957565b60405162461bcd60e51b815260206004820152602760248201527f5468697320706f6c6c206f6e6c7920616363657074732061207370656369666960448201526631903a37b5b2b760c91b6064820152608490fd5b6001600160a01b039081169081156133895760008051602061355483398151915280546001600160a01b031981168417909155167f8be0079c531659141344cd1fd0a4f28419497f9722a3daafe3b4186f6b6457e0600080a3565b604051631e4fbdf760e01b815260006004820152602490fd5b600080516020613554833981519152546001600160a01b031633036133c357565b60405163118cdaa760e01b8152336004820152602490fd5b60008051602061359483398151915260028154146133f95760029055565b604051633ee5aeb560e01b8152600490fd5b60405163a9059cbb60e01b60208201526001600160a01b0392909216602483015260448083019390935291815261300f91613447606483612ed5565b906000602091828151910182855af1156134a3576000513d61349a57506001600160a01b0381163b155b6134785750565b604051635274afe760e01b81526001600160a01b039091166004820152602490fd5b60011415613471565b6040513d6000823e3d90fd5b60ff7ff0c57e16840df040f15088dc2f81fe391c3923bec73e23a9662efc9c229c6a005460401c16156134de57565b604051631afcd79f60e31b8152600490fd5b90613517575080511561350557602081519101fd5b60405163d6bda27560e01b8152600490fd5b8151158061354a575b613528575090565b604051639996b31560e01b81526001600160a01b039091166004820152602490fd5b50803b1561352056fe9016d09d72d40fdae2fd8ceac6b6234c7706214fd39c1cd1e609a0528c1993000e3da9f587b3fa2df2f1db3bde132c95d4065333c6197afe541940b11b5173029b779b17422d0df92223018b32b4d1fa46e071723d6817e2486d003becc55f00a2646970667358221220ef1069570b936df577ff8d64ee78c4061bebe8d941088752fa2b1d1c5cc4761e64736f6c63430008160033",
  "linkReferences": {},
  "deployedLinkReferences": {}
}