{
  "_format": "hh-sol-artifact-1",
  "contractName": "PremiumSubscription",
  "sourceName": "contracts/PremiumSubscription.sol",
  "abi": [
    {
      "inputs": [],
      "stateMutability": "nonpayable",
      "type": "constructor"
    },
    {
      "inputs": [
        {
          "internalType": "address",
          "name": "target",
          "type": "address"
        }
      ],
      "name": "AddressEmptyCode",
      "type": "error"
    },
    {
      "inputs": [],
      "name": "AlreadyLifetime",
      "type": "error"
    },
    {
      "inputs": [
        {
          "internalType": "address",
          "name": "implementation",
          "type": "address"
        }
      ],
      "name": "ERC1967InvalidImplementation",
      "type": "error"
    },
    {
      "inputs": [],
      "name": "ERC1967NonPayable",
      "type": "error"
    },
    {
      "inputs": [],
      "name": "FailedCall",
      "type": "error"
    },
    {
      "inputs": [],
      "name": "InsufficientPayment",
      "type": "error"
    },
    {
      "inputs": [],
      "name": "InvalidInitialization",
      "type": "error"
    },
    {
      "inputs": [],
      "name": "InvalidTier",
      "type": "error"
    },
    {
      "inputs": [],
      "name": "NotInitializing",
      "type": "error"
    },
    {
      "inputs": [
        {
          "internalType": "address",
          "name": "owner",
          "type": "address"
        }
      ],
      "name": "OwnableInvalidOwner",
      "type": "error"
    },
    {
      "inputs": [
        {
          "internalType": "address",
          "name": "account",
          "type": "address"
        }
      ],
      "name": "OwnableUnauthorizedAccount",
      "type": "error"
    },
    {
      "inputs": [],
      "name": "ReentrancyGuardReentrantCall",
      "type": "error"
    },
    {
      "inputs": [
        {
          "internalType": "address",
          "name": "token",
          "type": "address"
        }
      ],
      "name": "SafeERC20FailedOperation",
      "type": "error"
    },
    {
      "inputs": [],
      "name": "UUPSUnauthorizedCallContext",
      "type": "error"
    },
    {
      "inputs": [
        {
          "internalType": "bytes32",
          "name": "slot",
          "type": "bytes32"
        }
      ],
      "name": "UUPSUnsupportedProxiableUUID",
      "type": "error"
    },
    {
      "inputs": [],
      "name": "ZeroAddress",
      "type": "error"
    },
    {
      "anonymous": false,
      "inputs": [
        {
          "indexed": false,
          "internalType": "uint64",
          "name": "version",
          "type": "uint64"
        }
      ],
      "name": "Initialized",
      "type": "event"
    },
    {
      "anonymous": false,
      "inputs": [
        {
          "indexed": true,
          "internalType": "address",
          "name": "previousOwner",
          "type": "address"
        },
        {
          "indexed": true,
          "internalType": "address",
          "name": "newOwner",
          "type": "address"
        }
      ],
      "name": "OwnershipTransferred",
      "type": "event"
    },
    {
      "anonymous": false,
      "inputs": [
        {
          "indexed": true,
          "internalType": "address",
          "name": "oldContract",
          "type": "address"
        },
        {
          "indexed": true,
          "internalType": "address",
          "name": "newContract",
          "type": "address"
        }
      ],
      "name": "StakingContractUpdated",
      "type": "event"
    },
    {
      "anonymous": false,
      "inputs": [
        {
          "indexed": true,
          "internalType": "address",
          "name": "user",
          "type": "address"
        },
        {
          "indexed": false,
          "internalType": "enum PremiumSubscription.SubscriptionTier",
          "name": "tier",
          "type": "uint8"
        },
        {
          "indexed": false,
          "internalType": "uint256",
          "name": "newExpirationTime",
          "type": "uint256"
        },
        {
          "indexed": false,
          "internalType": "uint256",
          "name": "price",
          "type": "uint256"
        },
        {
          "indexed": false,
          "internalType": "uint256",
          "name": "timestamp",
          "type": "uint256"
        }
      ],
      "name": "SubscriptionExtended",
      "type": "event"
    },
    {
      "anonymous": false,
      "inputs": [
        {
          "indexed": true,
          "internalType": "address",
          "name": "user",
          "type": "address"
        },
        {
          "indexed": false,
          "internalType": "enum PremiumSubscription.SubscriptionTier",
          "name": "tier",
          "type": "uint8"
        },
        {
          "indexed": false,
          "internalType": "uint256",
          "name": "expirationTime",
          "type": "uint256"
        },
        {
          "indexed": false,
          "internalType": "uint256",
          "name": "price",
          "type": "uint256"
        },
        {
          "indexed": false,
          "internalType": "uint256",
          "name": "timestamp",
          "type": "uint256"
        }
      ],
      "name": "SubscriptionPurchased",
      "type": "event"
    },
    {
      "anonymous": false,
      "inputs": [
        {
          "indexed": false,
          "internalType": "enum PremiumSubscription.SubscriptionTier",
          "name": "tier",
          "type": "uint8"
        },
        {
          "indexed": false,
          "internalType": "uint256",
          "name": "oldPrice",
          "type": "uint256"
        },
        {
          "indexed": false,
          "internalType": "uint256",
          "name": "newPrice",
          "type": "uint256"
        }
      ],
      "name": "TierPriceUpdated",
      "type": "event"
    },
    {
      "anonymous": false,
      "inputs": [
        {
          "indexed": true,
          "internalType": "address",
          "name": "oldTreasury",
          "type": "address"
        },
        {
          "indexed": true,
          "internalType": "address",
          "name": "newTreasury",
          "type": "address"
        }
      ],
      "name": "TreasuryUpdated",
      "type": "event"
    },
    {
      "anonymous": false,
      "inputs": [
        {
          "indexed": true,
          "internalType": "address",
          "name": "implementation",
          "type": "address"
        }
      ],
      "name": "Upgraded",
      "type": "event"
    },
    {
      "inputs": [],
      "name": "ANNUAL_DURATION",
      "outputs": [
        {
          "internalType": "uint256",
          "name": "",
          "type": "uint256"
        }
      ],
      "stateMutability": "view",
      "type": "function"
    },
    {
      "inputs": [],
      "name": "MONTHLY_DURATION",
      "outputs": [
        {
          "internalType": "uint256",
          "name": "",
          "type": "uint256"
        }
      ],
      "stateMutability": "view",
      "type": "function"
    },
    {
      "inputs": [],
      "name": "UPGRADE_INTERFACE_VERSION",
      "outputs": [
        {
          "internalType": "string",
          "name": "",
          "type": "string"
        }
      ],
      "stateMutability": "view",
      "type": "function"
    },
    {
      "inputs": [
        {
          "internalType": "enum PremiumSubscription.SubscriptionTier",
          "name": "tier",
          "type": "uint8"
        }
      ],
      "name": "extendSubscription",
      "outputs": [],
      "stateMutability": "nonpayable",
      "type": "function"
    },
    {
      "inputs": [
        {
          "internalType": "address",
          "name": "user",
          "type": "address"
        }
      ],
      "name": "getSubscription",
      "outputs": [
        {
          "internalType": "enum PremiumSubscription.SubscriptionTier",
          "name": "tier",
          "type": "uint8"
        },
        {
          "internalType": "uint256",
          "name": "expirationTime",
          "type": "uint256"
        },
        {
          "internalType": "bool",
          "name": "isActive",
          "type": "bool"
        },
        {
          "internalType": "uint256",
          "name": "purchaseTime",
          "type": "uint256"
        },
        {
          "internalType": "uint256",
          "name": "totalPaid",
          "type": "uint256"
        }
      ],
      "stateMutability": "view",
      "type": "function"
    },
    {
      "inputs": [
        {
          "internalType": "enum PremiumSubscription.SubscriptionTier",
          "name": "tier",
          "type": "uint8"
        }
      ],
      "name": "getTierDuration",
      "outputs": [
        {
          "internalType": "uint256",
          "name": "",
          "type": "uint256"
        }
      ],
      "stateMutability": "view",
      "type": "function"
    },
    {
      "inputs": [
        {
          "internalType": "enum PremiumSubscription.SubscriptionTier",
          "name": "tier",
          "type": "uint8"
        }
      ],
      "name": "getTierPrice",
      "outputs": [
        {
          "internalType": "uint256",
          "name": "",
          "type": "uint256"
        }
      ],
      "stateMutability": "view",
      "type": "function"
    },
    {
      "inputs": [
        {
          "internalType": "address",
          "name": "user",
          "type": "address"
        }
      ],
      "name": "getTimeRemaining",
      "outputs": [
        {
          "internalType": "uint256",
          "name": "",
          "type": "uint256"
        }
      ],
      "stateMutability": "view",
      "type": "function"
    },
    {
      "inputs": [
        {
          "internalType": "address",
          "name": "user",
          "type": "address"
        },
        {
          "internalType": "enum PremiumSubscription.SubscriptionTier",
          "name": "tier",
          "type": "uint8"
        },
        {
          "internalType": "uint256",
          "name": "duration",
          "type": "uint256"
        }
      ],
      "name": "grantSubscription",
      "outputs": [],
      "stateMutability": "nonpayable",
      "type": "function"
    },
    {
      "inputs": [
        {
          "internalType": "address",
          "name": "_pulseToken",
          "type": "address"
        },
        {
          "internalType": "address",
          "name": "_stakingContract",
          "type": "address"
        },
        {
          "internalType": "address",
          "name": "_treasury",
          "type": "address"
        },
        {
          "internalType": "uint256",
          "name": "_monthlyPrice",
          "type": "uint256"
        },
        {
          "internalType": "uint256",
          "name": "_annualPrice",
          "type": "uint256"
        },
        {
          "internalType": "uint256",
          "name": "_lifetimePrice",
          "type": "uint256"
        }
      ],
      "name": "initialize",
      "outputs": [],
      "stateMutability": "nonpayable",
      "type": "function"
    },
    {
      "inputs": [
        {
          "internalType": "address",
          "name": "user",
          "type": "address"
        }
      ],
      "name": "isPremium",
      "outputs": [
        {
          "internalType": "bool",
          "name": "",
          "type": "bool"
        }
      ],
      "stateMutability": "view",
      "type": "function"
    },
    {
      "inputs": [
        {
          "internalType": "address",
          "name": "user",
          "type": "address"
        }
      ],
      "name": "isPremiumOrStaked",
      "outputs": [
        {
          "internalType": "bool",
          "name": "",
          "type": "bool"
        }
      ],
      "stateMutability": "view",
      "type": "function"
    },
    {
      "inputs": [],
      "name": "owner",
      "outputs": [
        {
          "internalType": "address",
          "name": "",
          "type": "address"
        }
      ],
      "stateMutability": "view",
      "type": "function"
    },
    {
      "inputs": [],
      "name": "proxiableUUID",
      "outputs": [
        {
          "internalType": "bytes32",
          "name": "",
          "type": "bytes32"
        }
      ],
      "stateMutability": "view",
      "type": "function"
    },
    {
      "inputs": [],
      "name": "pulseToken",
      "outputs": [
        {
          "internalType": "contract IERC20",
          "name": "",
          "type": "address"
        }
      ],
      "stateMutability": "view",
      "type": "function"
    },
    {
      "inputs": [],
      "name": "renounceOwnership",
      "outputs": [],
      "stateMutability": "nonpayable",
      "type": "function"
    },
    {
      "inputs": [
        {
          "internalType": "address",
          "name": "_stakingContract",
          "type": "address"
        }
      ],
      "name": "setStakingContract",
      "outputs": [],
      "stateMutability": "nonpayable",
      "type": "function"
    },
    {
      "inputs": [
        {
          "internalType": "enum PremiumSubscription.SubscriptionTier",
          "name": "tier",
          "type": "uint8"
        },
        {
          "internalType": "uint256",
          "name": "price",
          "type": "uint256"
        }
      ],
      "name": "setTierPrice",
      "outputs": [],
      "stateMutability": "nonpayable",
      "type": "function"
    },
    {
      "inputs": [
        {
          "internalType": "address",
          "name": "_treasury",
          "type": "address"
        }
      ],
      "name": "setTreasury",
      "outputs": [],
      "stateMutability": "nonpayable",
      "type": "function"
    },
    {
      "inputs": [],
      "name": "stakingContract",
      "outputs": [
        {
          "internalType": "contract IStakingContract",
          "name": "",
          "type": "address"
        }
      ],
      "stateMutability": "view",
      "type": "function"
    },
    {
      "inputs": [
        {
          "internalType": "enum PremiumSubscription.SubscriptionTier",
          "name": "tier",
          "type": "uint8"
        }
      ],
      "name": "subscribe",
      "outputs": [],
      "stateMutability": "nonpayable",
      "type": "function"
    },
    {
      "inputs": [
        {
          "internalType": "address",
          "name": "",
          "type": "address"
        }
      ],
      "name": "subscriptions",
      "outputs": [
        {
          "internalType": "enum PremiumSubscription.SubscriptionTier",
          "name": "tier",
          "type": "uint8"
        },
        {
          "internalType": "uint256",
          "name": "expirationTime",
          "type": "uint256"
        },
        {
          "internalType": "uint256",
          "name": "purchaseTime",
          "type": "uint256"
        },
        {
          "internalType": "uint256",
          "name": "totalPaid",
          "type": "uint256"
        }
      ],
      "stateMutability": "view",
      "type": "function"
    },
    {
      "inputs": [
        {
          "internalType": "enum PremiumSubscription.SubscriptionTier",
          "name": "",
          "type": "uint8"
        }
      ],
      "name": "tierDurations",
      "outputs": [
        {
          "internalType": "uint256",
          "name": "",
          "type": "uint256"
        }
      ],
      "stateMutability": "view",
      "type": "function"
    },
    {
      "inputs": [
        {
          "internalType": "enum PremiumSubscription.SubscriptionTier",
          "name": "",
          "type": "uint8"
        }
      ],
      "name": "tierPrices",
      "outputs": [
        {
          "internalType": "uint256",
          "name": "",
          "type": "uint256"
        }
      ],
      "stateMutability": "view",
      "type": "function"
    },
    {
      "inputs": [],
      "name": "totalRevenue",
      "outputs": [
        {
          "internalType": "uint256",
          "name": "",
          "type": "uint256"
        }
      ],
      "stateMutability": "view",
      "type": "function"
    },
    {
      "inputs": [],
      "name": "totalSubscribers",
      "outputs": [
        {
          "internalType": "uint256",
          "name": "",
          "type": "uint256"
        }
      ],
      "stateMutability": "view",
      "type": "function"
    },
    {
      "inputs": [
        {
          "internalType": "address",
          "name": "newOwner",
          "type": "address"
        }
      ],
      "name": "transferOwnership",
      "outputs": [],
      "stateMutability": "nonpayable",
      "type": "function"
    },
    {
      "inputs": [],
      "name": "treasury",
      "outputs": [
        {
          "internalType": "address",
          "name": "",
          "type": "address"
        }
      ],
      "stateMutability": "view",
      "type": "function"
    },
    {
      "inputs": [
        {
          "internalType": "address",
          "name": "newImplementation",
          "type": "address"
        },
        {
          "internalType": "bytes",
          "name": "data",
          "type": "bytes"
        }
      ],
      "name": "upgradeToAndCall",
      "outputs": [],
      "stateMutability": "payable",
      "type": "function"
    }
  ],
  "bytecode": "0x60a080604052346100cc57306080527ff0c57e16840df040f15088dc2f81fe391c3923bec73e23a9662efc9c229c6a009081549060ff8260401c166100bd57506001600160401b036002600160401b031982821601610078575b60405161163990816100d28239608051818181610af60152610bd50152f35b6001600160401b031990911681179091556040519081527fc7f505b2f371ae2175ee4913f4499e1f2633a7b5936321eed1cdaeb6115181d290602090a1388080610059565b63f92ee8a960e01b8152600490fd5b600080fdfe60406080815260048036101561001457600080fd5b600091823560e01c9182630b0ad26a1461109f5782630cbebc241461102d57826315e2475f1461100e5782633d03ca4d14610fef57826349c7e63914610e525782634a5c6f8c14610dbc5782634f1ef28614610b5a57826352d1902d14610ae15782635586402d146106365782635b0fc6e814610ab95782635e07e87714610a6757826361d027b314610a905782636551ab2a14610a67578263715018a6146109fd578263728cdbca146107ce578263742fe0d4146107a85782638da5cb5b146107725782639dd373b914610707578263ad3cb1cc14610667578263b4fad6f814610636578263bf2d9e0b14610617578263c73fb2c6146104cb578263da823010146104ad578263deb4ec5a146102d1578263e76e5330146102a2578263ee99205c14610279578263f046395a1461021d578263f0f442601461019157505063f2fde38b1461016257600080fd5b3461018e57602036600319011261018e5761018b61017e6110cc565b610186611506565b611350565b80f35b80fd5b90915034610219576020366003190112610219576101ad6110cc565b906101b6611506565b6001600160a01b0391821692831561020c575050600554826bffffffffffffffffffffffff60a01b821617600555167f4ab5be82436d353e61ca18726e984e561f5c1cc7c6d38b29d2553c790434705a8380a380f35b5163d92e233d60e01b8152fd5b8280fd5b838234610275576020366003190112610275579081906001600160a01b036102436110cc565b1681526002602052209061027160ff8354169160018401549360036002820154910154915194859485611190565b0390f35b5080fd5b83823461027557816003193601126102755760015490516001600160a01b039091168152602090f35b838234610275576020366003190112610275576020906102c86102c36110cc565b6112ad565b90519015158152f35b83823461027557602036600319011261027557823583811015610219576102f6611419565b801561049d5733835260026020528183209160ff8354168581101561048a576003148061047e575b61046f5761032b8261115e565b549081156104605784546005546103529184916001600160a01b039081169133911661145b565b6003831493841561042e5785945b60ff8254168881101561041b576103da92869594926003927ff0f5a4d6a18eb1e7aec1db426d7e74a3a29408c9410855662adac64b9b0b70a29811908115610413575b50610404575b876001820155016103bb848254611263565b90556103c983600654611263565b600655519283923396429285611190565b0390a260017f9b779b17422d0df92223018b32b4d1fa46e071723d6817e2486d003becc55f005580f35b61040e8682611286565b6103a9565b90508a6103a3565b634e487b7160e01b885260218952602488fd5b61043784611177565b54600182015490428211156104555761044f91611263565b94610360565b61044f915042611263565b5163e142361760e01b81528590fd5b51634c7f607960e11b81528490fd5b5060018301541561031e565b634e487b7160e01b855260218652602485fd5b815163e142361760e01b81528490fd5b8382346102755781600319360112610275576020905162278d008152f35b915034610219576060366003190112610219576104e66110cc565b906024358381101561061357604435906104fe611506565b808015610603576001600160a01b0385169586156105f55750927fddfed9701b476504677b4c3a894c2333196d2193b7ec98e14ba16579f696e343949287926080958885526002602052610554848620966113c4565b15926003821480156105ea575b156105bb5750505082906003945b6105798682611286565b8260018201556002429101556105a8575b610596825180956110e7565b6020840152820152426060820152a280f35b6105b360075461129e565b60075561058a565b9195929180156105d6576105d0915042611263565b9161056f565b506105e36105d091611177565b5442611263565b506000198114610561565b845163d92e233d60e01b8152fd5b835163e142361760e01b81528690fd5b8480fd5b8382346102755781600319360112610275576020906006549051908152f35b90833461018e57602036600319011261018e5782359283101561018e575061065f60209261115e565b549051908152f35b909150346102195782600319360112610219578151908282019082821067ffffffffffffffff8311176106f45750825260058152602090640352e302e360dc1b6020820152825193849260208452825192836020860152825b8481106106de57505050828201840152601f01601f19168101030190f35b81810183015188820188015287955082016106c0565b634e487b7160e01b855260419052602484fd5b833461018e57602036600319011261018e576107216110cc565b610729611506565b600180546001600160a01b039283166001600160a01b0319821681179092559091167f7042586b23181180eb30b4798702d7a0233b7fc2551e89806770e8e5d9392e6a8380a380f35b8382346102755781600319360112610275576000805160206115e48339815191525490516001600160a01b039091168152602090f35b838234610275576020366003190112610275576020906102c86107c96110cc565b6113c4565b909150346102195760c0366003190112610219576107ea6110cc565b6024356001600160a01b03818116939092918490036109f9576044358381168091036109f5577ff0c57e16840df040f15088dc2f81fe391c3923bec73e23a9662efc9c229c6a009485549460ff86891c16159467ffffffffffffffff8716968715806109ee575b600180991490816109e4575b1590816109db575b506109cb5767ffffffffffffffff19811688178955866109ac575b501690811561099c57821561099c5761089761153f565b61089f61153f565b6108a833611350565b6108b061153f565b6108b861153f565b857f9b779b17422d0df92223018b32b4d1fa46e071723d6817e2486d003becc55f00556108e361153f565b6bffffffffffffffffffffffff60a01b91828a541617895581865416178555600554161760055582865260036020526064358587205560028652608435858720556003865260a4358587205582865260205262278d0084862055600285526301e133808486205560038552848481205561095b578380f35b7fc7f505b2f371ae2175ee4913f4499e1f2633a7b5936321eed1cdaeb6115181d29260209268ff000000000000000019815416905551908152a13880808380f35b875163d92e233d60e01b81528490fd5b68ffffffffffffffffff19166801000000000000000117885538610880565b895163f92ee8a960e01b81528690fd5b90501538610865565b303b15915061085d565b5086610851565b8680fd5b8580fd5b833461018e578060031936011261018e57610a16611506565b6000805160206115e483398151915280546001600160a01b0319811690915581906001600160a01b03167f8be0079c531659141344cd1fd0a4f28419497f9722a3daafe3b4186f6b6457e08280a380f35b90833461018e57602036600319011261018e5782359283101561018e575061065f602092611177565b83823461027557816003193601126102755760055490516001600160a01b039091168152602090f35b838234610275578160031936011261027557905490516001600160a01b039091168152602090f35b90833461018e578060031936011261018e57507f00000000000000000000000000000000000000000000000000000000000000006001600160a01b03163003610b4d57602090517f360894a13ba1a3210667c828492db98dca3e2076cc3735a920a3ca505d382bbc8152f35b5163703e46dd60e11b8152fd5b91508060031936011261021957610b6f6110cc565b90602493843567ffffffffffffffff811161027557366023820112156102755780850135610b9c81611142565b94610ba98551968761110a565b81865260209182870193368a83830101116109f9578186928b8693018737880101526001600160a01b037f00000000000000000000000000000000000000000000000000000000000000008116308114908115610d8e575b50610d7e57610c0e611506565b81169585516352d1902d60e01b815283818a818b5afa869181610d4f575b50610c48575050505050505191634c9c8ce360e01b8352820152fd5b9088888894938c7f360894a13ba1a3210667c828492db98dca3e2076cc3735a920a3ca505d382bbc91828103610d3a5750853b15610d26575080546001600160a01b031916821790558451889392917fbc7cd75a20ee27fd9adebab32041f755214dbc6bffa90cc0225b39da2e5c2d3b8580a2825115610d08575050610cfa9582915190845af4913d15610cfe573d610cec610ce382611142565b9251928361110a565b81528581943d92013e611580565b5080f35b5060609250611580565b955095505050505034610d1a57505080f35b63b398979f60e01b8152fd5b8651634c9c8ce360e01b8152808501849052fd5b8751632a87526960e21b815280860191909152fd5b9091508481813d8311610d77575b610d67818361110a565b810103126109f557519038610c2c565b503d610d5d565b855163703e46dd60e11b81528890fd5b9050817f360894a13ba1a3210667c828492db98dca3e2076cc3735a920a3ca505d382bbc5416141538610c01565b9091503461021957816003193601126102195780359181831015610e4e5760243591610de6611506565b8315610e405750916060917fe953811b58c1d1ffb5e52f9545450409fdee8178978f6f3ba0ca8589a2acb85993610e1c8361115e565b5482610e278561115e565b55610e34825180956110e7565b6020840152820152a180f35b905163e142361760e01b8152fd5b8380fd5b909150346102195760203660031901126102195780359080821015610e4e57610e79611419565b8115610fe15733845260026020528284209260ff84541682811015610fce5760031480610fc2575b610fb557610eae8361115e565b54918215610e405750906103da7fddfed9701b476504677b4c3a894c2333196d2193b7ec98e14ba16579f696e3439392610efa8360018060a01b03808a5416906005541690339061145b565b610f03336113c4565b1560038503610f6a57600388975b610f1b8782611286565b88600182015542600282015501610f33858254611263565b9055610f4184600654611263565b600655610f57575b519283923396429285611190565b610f6260075461129e565b600755610f49565b6003610f7586611177565b54610f7f336113c4565b80610fa8575b15610f9e57610f989060018a0154611263565b97610f11565b610f989042611263565b5060018901544210610f85565b51634c7f607960e11b8152fd5b50600184015415610ea1565b634e487b7160e01b865260218352602486fd5b825163e142361760e01b8152fd5b838234610275578160031936011261027557602090516301e133808152f35b8382346102755781600319360112610275576020906007549051908152f35b8382346102755760203660031901126102755760a0918161104c6110cc565b91600180861b038316815260026020522060ff815416926110716001830154936113c4565b6003600284015493015493611088835180976110e7565b602086015215159084015260608301526080820152f35b838234610275576020366003190112610275576020906110c56110c06110cc565b6111b3565b9051908152f35b600435906001600160a01b03821682036110e257565b600080fd5b9060048210156110f45752565b634e487b7160e01b600052602160045260246000fd5b90601f8019910116810190811067ffffffffffffffff82111761112c57604052565b634e487b7160e01b600052604160045260246000fd5b67ffffffffffffffff811161112c57601f01601f191660200190565b60048110156110f4576000526003602052604060002090565b60048110156110f4576000526004602052604060002090565b909493926060926111a58360808101986110e7565b602083015260408201520152565b6001600160a01b03166000908152600260205260408120805460ff16600481101561124f5760031480611243575b80611236575b61122e57600101549081158015611224575b61121f5742820391821161120b575090565b634e487b7160e01b81526011600452602490fd5b905090565b50428211156111f9565b505060001990565b50600281015415156111e7565b506001810154156111e1565b634e487b7160e01b83526021600452602483fd5b9190820180921161127057565b634e487b7160e01b600052601160045260246000fd5b9060048110156110f45760ff80198354169116179055565b60001981146112705760010190565b6112b6816113c4565b61134a576001546001600160a01b039081169190826112d757505050600090565b6024602092604051948593849263594d2fdf60e11b84521660048301525afa809160009161130f575b509061130c5750600090565b90565b6020813d602011611342575b816113286020938361110a565b81010312610275575190811515820361018e575038611300565b3d915061131b565b50600190565b6001600160a01b039081169081156113ab576000805160206115e483398151915280546001600160a01b031981168417909155167f8be0079c531659141344cd1fd0a4f28419497f9722a3daafe3b4186f6b6457e0600080a3565b604051631e4fbdf760e01b815260006004820152602490fd5b60018060a01b0316600052600260205260406000206002810154156114135760ff81541660048110156110f45760031480611407575b61134a5760010154421090565b506001810154156113fa565b50600090565b7f9b779b17422d0df92223018b32b4d1fa46e071723d6817e2486d003becc55f0060028154146114495760029055565b604051633ee5aeb560e01b8152600490fd5b6040516323b872dd60e01b602082019081526001600160a01b039384166024830152938316604482015260648082019590955293845292909160a082019067ffffffffffffffff82118383101761112c57602092600092604052519082865af1156114fa576000513d6114f157508082163b155b6114d7575050565b604051635274afe760e01b81529116600482015260249150fd5b600114156114cf565b6040513d6000823e3d90fd5b6000805160206115e4833981519152546001600160a01b0316330361152757565b60405163118cdaa760e01b8152336004820152602490fd5b60ff7ff0c57e16840df040f15088dc2f81fe391c3923bec73e23a9662efc9c229c6a005460401c161561156e57565b604051631afcd79f60e31b8152600490fd5b906115a7575080511561159557602081519101fd5b60405163d6bda27560e01b8152600490fd5b815115806115da575b6115b8575090565b604051639996b31560e01b81526001600160a01b039091166004820152602490fd5b50803b156115b056fe9016d09d72d40fdae2fd8ceac6b6234c7706214fd39c1cd1e609a0528c199300a26469706673582212209dc474b4fc078093612524dc384f819317d82e1f4ba1783ada22e722d5383ab864736f6c63430008160033",
  "linkReferences": {},
  "deployedLinkReferences": {}
}