{
  "_format": "hh-sol-artifact-1",
  "contractName": "StakingContract",
  "sourceName": "contracts/StakingContract.sol",
  "abi": [
    {
      "inputs": [],
      "stateMutability": "nonpayable",
      "type": "constructor"
    },
    {
      "inputs": [
        {
          "internalType": "address",
          "name": "target",
          "type": "address"
        }
      ],
      "name": "AddressEmptyCode",
      "type": "error"
    },
    {
      "inputs": [
        {
          "internalType": "address",
          "name": "implementation",
          "type": "address"
        }
      ],
      "name": "ERC1967InvalidImplementation",
      "type": "error"
    },
    {
      "inputs": [],
      "name": "ERC1967NonPayable",
      "type": "error"
    },
    {
      "inputs": [],
      "name": "FailedCall",
      "type": "error"
    },
    {
      "inputs": [],
      "name": "InsufficientRewardPool",
      "type": "error"
    },
    {
      "inputs": [],
      "name": "InsufficientStake",
      "type": "error"
    },
    {
      "inputs": [],
      "name": "InvalidInitialization",
      "type": "error"
    },
    {
      "inputs": [],
      "name": "NoRewardsToClaim",
      "type": "error"
    },
    {
      "inputs": [],
      "name": "NotInitializing",
      "type": "error"
    },
    {
      "inputs": [
        {
          "internalType": "address",
          "name": "owner",
          "type": "address"
        }
      ],
      "name": "OwnableInvalidOwner",
      "type": "error"
    },
    {
      "inputs": [
        {
          "internalType": "address",
          "name": "account",
          "type": "address"
        }
      ],
      "name": "OwnableUnauthorizedAccount",
      "type": "error"
    },
    {
      "inputs": [],
      "name": "ReentrancyGuardReentrantCall",
      "type": "error"
    },
    {
      "inputs": [
        {
          "internalType": "address",
          "name": "token",
          "type": "address"
        }
      ],
      "name": "SafeERC20FailedOperation",
      "type": "error"
    },
    {
      "inputs": [],
      "name": "UUPSUnauthorizedCallContext",
      "type": "error"
    },
    {
      "inputs": [
        {
          "internalType": "bytes32",
          "name": "slot",
          "type": "bytes32"
        }
      ],
      "name": "UUPSUnsupportedProxiableUUID",
      "type": "error"
    },
    {
      "inputs": [],
      "name": "ZeroAmount",
      "type": "error"
    },
    {
      "anonymous": false,
      "inputs": [
        {
          "indexed": false,
          "internalType": "uint64",
          "name": "version",
          "type": "uint64"
        }
      ],
      "name": "Initialized",
      "type": "event"
    },
    {
      "anonymous": false,
      "inputs": [
        {
          "indexed": false,
          "internalType": "uint256",
          "name": "oldAmount",
          "type": "uint256"
        },
        {
          "indexed": false,
          "internalType": "uint256",
          "name": "newAmount",
          "type": "uint256"
        }
      ],
      "name": "MinimumStakeUpdated",
      "type": "event"
    },
    {
      "anonymous": false,
      "inputs": [
        {
          "indexed": true,
          "internalType": "address",
          "name": "previousOwner",
          "type": "address"
        },
        {
          "indexed": true,
          "internalType": "address",
          "name": "newOwner",
          "type": "address"
        }
      ],
      "name": "OwnershipTransferred",
      "type": "event"
    },
    {
      "anonymous": false,
      "inputs": [
        {
          "indexed": true,
          "internalType": "address",
          "name": "oldContract",
          "type": "address"
        },
        {
          "indexed": true,
          "internalType": "address",
          "name": "newContract",
          "type": "address"
        }
      ],
      "name": "PremiumContractUpdated",
      "type": "event"
    },
    {
      "anonymous": false,
      "inputs": [
        {
          "indexed": true,
          "internalType": "address",
          "name": "funder",
          "type": "address"
        },
        {
          "indexed": false,
          "internalType": "uint256",
          "name": "amount",
          "type": "uint256"
        }
      ],
      "name": "RewardPoolFunded",
      "type": "event"
    },
    {
      "anonymous": false,
      "inputs": [
        {
          "indexed": false,
          "internalType": "uint256",
          "name": "oldRate",
          "type": "uint256"
        },
        {
          "indexed": false,
          "internalType": "uint256",
          "name": "newRate",
          "type": "uint256"
        }
      ],
      "name": "RewardRateUpdated",
      "type": "event"
    },
    {
      "anonymous": false,
      "inputs": [
        {
          "indexed": true,
          "internalType": "address",
          "name": "user",
          "type": "address"
        },
        {
          "indexed": false,
          "internalType": "uint256",
          "name": "amount",
          "type": "uint256"
        },
        {
          "indexed": false,
          "internalType": "uint256",
          "name": "timestamp",
          "type": "uint256"
        }
      ],
      "name": "RewardsClaimed",
      "type": "event"
    },
    {
      "anonymous": false,
      "inputs": [
        {
          "indexed": true,
          "internalType": "address",
          "name": "user",
          "type": "address"
        },
        {
          "indexed": false,
          "internalType": "uint256",
          "name": "amount",
          "type": "uint256"
        },
        {
          "indexed": false,
          "internalType": "uint256",
          "name": "timestamp",
          "type": "uint256"
        }
      ],
      "name": "Staked",
      "type": "event"
    },
    {
      "anonymous": false,
      "inputs": [
        {
          "indexed": true,
          "internalType": "address",
          "name": "user",
          "type": "address"
        },
        {
          "indexed": false,
          "internalType": "uint256",
          "name": "amount",
          "type": "uint256"
        },
        {
          "indexed": false,
          "internalType": "uint256",
          "name": "timestamp",
          "type": "uint256"
        }
      ],
      "name": "Unstaked",
      "type": "event"
    },
    {
      "anonymous": false,
      "inputs": [
        {
          "indexed": true,
          "internalType": "address",
          "name": "implementation",
          "type": "address"
        }
      ],
      "name": "Upgraded",
      "type": "event"
    },
    {
      "inputs": [],
      "name": "UPGRADE_INTERFACE_VERSION",
      "outputs": [
        {
          "internalType": "string",
          "name": "",
          "type": "string"
        }
      ],
      "stateMutability": "view",
      "type": "function"
    },
    {
      "inputs": [
        {
          "internalType": "address",
          "name": "user",
          "type": "address"
        }
      ],
      "name": "calculatePendingRewards",
      "outputs": [
        {
          "internalType": "uint256",
          "name": "",
          "type": "uint256"
        }
      ],
      "stateMutability": "view",
      "type": "function"
    },
    {
      "inputs": [],
      "name": "claimRewards",
      "outputs": [],
      "stateMutability": "nonpayable",
      "type": "function"
    },
    {
      "inputs": [
        {
          "internalType": "address",
          "name": "token",
          "type": "address"
        },
        {
          "internalType": "uint256",
          "name": "amount",
          "type": "uint256"
        }
      ],
      "name": "emergencyWithdraw",
      "outputs": [],
      "stateMutability": "nonpayable",
      "type": "function"
    },
    {
      "inputs": [
        {
          "internalType": "uint256",
          "name": "amount",
          "type": "uint256"
        }
      ],
      "name": "fundRewardPool",
      "outputs": [],
      "stateMutability": "nonpayable",
      "type": "function"
    },
    {
      "inputs": [
        {
          "internalType": "address",
          "name": "user",
          "type": "address"
        }
      ],
      "name": "getStakeInfo",
      "outputs": [
        {
          "internalType": "uint256",
          "name": "amount",
          "type": "uint256"
        },
        {
          "internalType": "uint256",
          "name": "stakingStartTime",
          "type": "uint256"
        },
        {
          "internalType": "uint256",
          "name": "lastRewardClaim",
          "type": "uint256"
        },
        {
          "internalType": "uint256",
          "name": "accumulatedRewards",
          "type": "uint256"
        },
        {
          "internalType": "uint256",
          "name": "pendingRewards",
          "type": "uint256"
        }
      ],
      "stateMutability": "view",
      "type": "function"
    },
    {
      "inputs": [
        {
          "internalType": "address",
          "name": "user",
          "type": "address"
        }
      ],
      "name": "getTotalClaimableRewards",
      "outputs": [
        {
          "internalType": "uint256",
          "name": "",
          "type": "uint256"
        }
      ],
      "stateMutability": "view",
      "type": "function"
    },
    {
      "inputs": [
        {
          "internalType": "address",
          "name": "_pulseToken",
          "type": "address"
        },
        {
          "internalType": "uint256",
          "name": "_minimumStakeForPremium",
          "type": "uint256"
        },
        {
          "internalType": "uint256",
          "name": "_rewardRatePerSecond",
          "type": "uint256"
        }
      ],
      "name": "initialize",
      "outputs": [],
      "stateMutability": "nonpayable",
      "type": "function"
    },
    {
      "inputs": [
        {
          "internalType": "address",
          "name": "user",
          "type": "address"
        }
      ],
      "name": "isPremiumByStaking",
      "outputs": [
        {
          "internalType": "bool",
          "name": "",
          "type": "bool"
        }
      ],
      "stateMutability": "view",
      "type": "function"
    },
    {
      "inputs": [],
      "name": "minimumStakeForPremium",
      "outputs": [
        {
          "internalType": "uint256",
          "name": "",
          "type": "uint256"
        }
      ],
      "stateMutability": "view",
      "type": "function"
    },
    {
      "inputs": [],
      "name": "owner",
      "outputs": [
        {
          "internalType": "address",
          "name": "",
          "type": "address"
        }
      ],
      "stateMutability": "view",
      "type": "function"
    },
    {
      "inputs": [],
      "name": "premiumContract",
      "outputs": [
        {
          "internalType": "address",
          "name": "",
          "type": "address"
        }
      ],
      "stateMutability": "view",
      "type": "function"
    },
    {
      "inputs": [],
      "name": "proxiableUUID",
      "outputs": [
        {
          "internalType": "bytes32",
          "name": "",
          "type": "bytes32"
        }
      ],
      "stateMutability": "view",
      "type": "function"
    },
    {
      "inputs": [],
      "name": "pulseToken",
      "outputs": [
        {
          "internalType": "contract IERC20",
          "name": "",
          "type": "address"
        }
      ],
      "stateMutability": "view",
      "type": "function"
    },
    {
      "inputs": [],
      "name": "renounceOwnership",
      "outputs": [],
      "stateMutability": "nonpayable",
      "type": "function"
    },
    {
      "inputs": [],
      "name": "rewardPool",
      "outputs": [
        {
          "internalType": "uint256",
          "name": "",
          "type": "uint256"
        }
      ],
      "stateMutability": "view",
      "type": "function"
    },
    {
      "inputs": [],
      "name": "rewardRatePerSecond",
      "outputs": [
        {
          "internalType": "uint256",
          "name": "",
          "type": "uint256"
        }
      ],
      "stateMutability": "view",
      "type": "function"
    },
    {
      "inputs": [
        {
          "internalType": "uint256",
          "name": "_minimumStakeForPremium",
          "type": "uint256"
        }
      ],
      "name": "setMinimumStakeForPremium",
      "outputs": [],
      "stateMutability": "nonpayable",
      "type": "function"
    },
    {
      "inputs": [
        {
          "internalType": "address",
          "name": "_premiumContract",
          "type": "address"
        }
      ],
      "name": "setPremiumContract",
      "outputs": [],
      "stateMutability": "nonpayable",
      "type": "function"
    },
    {
      "inputs": [
        {
          "internalType": "uint256",
          "name": "_rewardRatePerSecond",
          "type": "uint256"
        }
      ],
      "name": "setRewardRate",
      "outputs": [],
      "stateMutability": "nonpayable",
      "type": "function"
    },
    {
      "inputs": [
        {
          "internalType": "uint256",
          "name": "amount",
          "type": "uint256"
        }
      ],
      "name": "stake",
      "outputs": [],
      "stateMutability": "nonpayable",
      "type": "function"
    },
    {
      "inputs": [
        {
          "internalType": "address",
          "name": "",
          "type": "address"
        }
      ],
      "name": "stakes",
      "outputs": [
        {
          "internalType": "uint256",
          "name": "amount",
          "type": "uint256"
        },
        {
          "internalType": "uint256",
          "name": "stakingStartTime",
          "type": "uint256"
        },
        {
          "internalType": "uint256",
          "name": "lastRewardClaim",
          "type": "uint256"
        },
        {
          "internalType": "uint256",
          "name": "accumulatedRewards",
          "type": "uint256"
        }
      ],
      "stateMutability": "view",
      "type": "function"
    },
    {
      "inputs": [],
      "name": "totalStaked",
      "outputs": [
        {
          "internalType": "uint256",
          "name": "",
          "type": "uint256"
        }
      ],
      "stateMutability": "view",
      "type": "function"
    },
    {
      "inputs": [
        {
          "internalType": "address",
          "name": "newOwner",
          "type": "address"
        }
      ],
      "name": "transferOwnership",
      "outputs": [],
      "stateMutability": "nonpayable",
      "type": "function"
    },
    {
      "inputs": [
        {
          "internalType": "uint256",
          "name": "amount",
          "type": "uint256"
        }
      ],
      "name": "unstake",
      "outputs": [],
      "stateMutability": "nonpayable",
      "type": "function"
    },
    {
      "inputs": [
        {
          "internalType": "address",
          "name": "newImplementation",
          "type": "address"
        },
        {
          "internalType": "bytes",
          "name": "data",
          "type": "bytes"
        }
      ],
      "name": "upgradeToAndCall",
      "outputs": [],
      "stateMutability": "payable",
      "type": "function"
    }
  ],
  "bytecode": "0x60a080604052346100cc57306080527ff0c57e16840df040f15088dc2f81fe391c3923bec73e23a9662efc9c229c6a009081549060ff8260401c166100bd57506001600160401b036002600160401b031982821601610078575b6040516112f590816100d282396080518181816108ff01526109df0152f35b6001600160401b031990911681179091556040519081527fc7f505b2f371ae2175ee4913f4499e1f2633a7b5936321eed1cdaeb6115181d290602090a1388080610059565b63f92ee8a960e01b8152600490fd5b600080fdfe6040608081526004908136101561001557600080fd5b600091823560e01c918263097aad1014610e5157826316934fc414610df75782631d583e0d14610d695782632e17de7814610cc1578263372500ab14610be95782633b9b00af14610bca5782634f1ef2861461096357826352d1902d146108eb5782635b0fc6e8146108c35782635d773b2c146108a557826360d8fdd81461085757826366666aa914610838578263715018a6146107ce5782637a1ac61e14610647578263816fc934146105dc578263817b1cd2146105bd5782638da5cb5b1461058757826395ccea67146104685782639e447fc614610415578263a694fc3a1461033b578263ad3cb1cc1461029c578263b29a5fbe1461025f578263c3453153146101f7578263cfef17a7146101ca578263d042c7121461017157505063f2fde38b1461014257600080fd5b3461016e57602036600319011261016e5761016b61015e610e77565b61016661113a565b610f91565b80f35b80fd5b909150346101c65760203660031901126101c6577fd67ed534faf3e0dcda08ac6043ec96dcf9b6ebec56055fd14bd0cb40a27c0e4991356101b061113a565b600354908060035582519182526020820152a180f35b8280fd5b8390346101f357816003193601126101f35760065490516001600160a01b039091168152602090f35b5080fd5b8390346101f35760203660031901126101f357908160a092610217610e77565b92600180861b0384168152600160205220918254926001810154926102456003600284015493015493610f1c565b938151958652602086015284015260608301526080820152f35b8390346101f35760203660031901126101f35760209181906001600160a01b03610287610e77565b16815260018452205460035411159051908152f35b9150346101c657826003193601126101c6578151908282019082821067ffffffffffffffff8311176103285750825260058152602090640352e302e360dc1b6020820152825193849260208452825192836020860152825b84811061031257505050828201840152601f01601f19168101030190f35b81810183015188820188015287955082016102f4565b634e487b7160e01b855260419052602484fd5b909150346101c65760203660031901126101c65781359161035a611005565b821561040757507f1449c6dd7851abc30abf37f57715f492010519147cc2652fbc38202c18a6ee909061038c33611090565b83546103a6908490309033906001600160a01b0316611035565b33845260016020528084206103c284825480156103f657610f84565b90556103d083600254610f84565b60025580519283524260208401523392a260016000805160206112a08339815191525580f35b426001850155426002850155610f84565b9051631f2a200560e01b8152fd5b909150346101c65760203660031901126101c657817fc390a98ace15a7bb6bab611eedfdbb2685043b241a869420043cdfb23ccfee50923561045561113a565b808254925582519182526020820152a180f35b8382346101f357826003193601126101f357610482610e77565b6024359161048e61113a565b83546001600160a01b0392831692168281146104b1575b8461016b8533866110ea565b602460206104c460025460055490610f84565b928851928380926370a0823160e01b825230888301525afa801561057d5785908790610543575b6104f59250610ee6565b1061050057806104a5565b606490602086519162461bcd60e51b8352820152601d60248201527f43616e6e6f74207769746864726177207374616b656420746f6b656e730000006044820152fd5b50506020813d602011610575575b8161055e60209383610e92565b8101031261057157846104f591516104eb565b8580fd5b3d9150610551565b87513d88823e3d90fd5b8390346101f357816003193601126101f3576000805160206112808339815191525490516001600160a01b039091168152602090f35b8390346101f357816003193601126101f3576020906002549051908152f35b833461016e57602036600319011261016e576105f6610e77565b6105fe61113a565b600680546001600160a01b039283166001600160a01b0319821681179092559091167f2116cb6f3ebde8e13019bd5040ae80452bcbf4c007a1cd5d3825a992f25da27e8380a380f35b9150346101c65760603660031901126101c657610662610e77565b7ff0c57e16840df040f15088dc2f81fe391c3923bec73e23a9662efc9c229c6a009182549160ff83861c16159267ffffffffffffffff8116801590816107c6575b60011490816107bc575b1590816107b3575b506107a35767ffffffffffffffff198116600117855583610784575b506106da6111db565b6106e26111db565b6106eb33610f91565b6106f36111db565b6106fb6111db565b60016000805160206112a0833981519152556107156111db565b85546001600160a01b0319166001600160a01b03919091161785556024356003556044359055610743578280f35b805468ff00000000000000001916905551600181527fc7f505b2f371ae2175ee4913f4499e1f2633a7b5936321eed1cdaeb6115181d290602090a138808280f35b68ffffffffffffffffff191668010000000000000001178455386106d1565b855163f92ee8a960e01b81528390fd5b905015386106b5565b303b1591506106ad565b8591506106a3565b833461016e578060031936011261016e576107e761113a565b60008051602061128083398151915280546001600160a01b0319811690915581906001600160a01b03167f8be0079c531659141344cd1fd0a4f28419497f9722a3daafe3b4186f6b6457e08280a380f35b8390346101f357816003193601126101f3576020906005549051908152f35b8390346101f35760203660031901126101f35761089e60209261089860038461087e610e77565b6001600160a01b0381168552600188529320015491610f1c565b90610f84565b9051908152f35b9150346101c657826003193601126101c65760209250549051908152f35b8390346101f357816003193601126101f357905490516001600160a01b039091168152602090f35b833461016e578060031936011261016e57507f00000000000000000000000000000000000000000000000000000000000000006001600160a01b0316300361095657602090517f360894a13ba1a3210667c828492db98dca3e2076cc3735a920a3ca505d382bbc8152f35b5163703e46dd60e11b8152fd5b809192506003193601126101c657610979610e77565b90602493843567ffffffffffffffff81116101f357366023820112156101f357808501356109a681610eca565b946109b385519687610e92565b81865260209182870193368a8383010111610571578186928b8693018737880101526001600160a01b037f00000000000000000000000000000000000000000000000000000000000000008116308114908115610b9c575b50610b8c57610a1861113a565b81169585516352d1902d60e01b815283818a818b5afa869181610b59575b50610a52575050505050505191634c9c8ce360e01b8352820152fd5b9088888894938c7f360894a13ba1a3210667c828492db98dca3e2076cc3735a920a3ca505d382bbc91828103610b445750853b15610b30575080546001600160a01b031916821790558451889392917fbc7cd75a20ee27fd9adebab32041f755214dbc6bffa90cc0225b39da2e5c2d3b8580a2825115610b12575050610b049582915190845af4913d15610b08573d610af6610aed82610eca565b92519283610e92565b81528581943d92013e61121c565b5080f35b506060925061121c565b955095505050505034610b2457505080f35b63b398979f60e01b8152fd5b8651634c9c8ce360e01b8152808501849052fd5b8751632a87526960e21b815280860191909152fd5b9091508481813d8311610b85575b610b718183610e92565b81010312610b8157519038610a36565b8680fd5b503d610b67565b855163703e46dd60e11b81528890fd5b9050817f360894a13ba1a3210667c828492db98dca3e2076cc3735a920a3ca505d382bbc5416141538610a0b565b8390346101f357816003193601126101f3576020906003549051908152f35b909150346101c657826003193601126101c657610c04611005565b610c0d33611090565b3383526001602052808320600381018054938415610cb3578460055410610ca5575090847fdacbdde355ba930696a362ea6738feb9f8bd52dfb3d81947558fd3217e23e325939255600242910155610c6783600554610ee6565b6005558354610c8290849033906001600160a01b03166110ea565b80519283524260208401523392a260016000805160206112a08339815191525580f35b8351633270436b60e01b8152fd5b83516373380d9960e01b8152fd5b909150346101c65760203660031901126101c657813591610ce0611005565b82156104075733845260016020528184209083825410610d5b5750907f7fc4727e062e336010f2c282598ef5f14facb3de68cf8195c2f23e1454b2b74e91610d2733611090565b610d32848254610ee6565b9055610d4083600254610ee6565b6002558354610c8290849033906001600160a01b03166110ea565b82516378de4a6960e11b8152fd5b909150346101c65760203660031901126101c657813591610d88611005565b821561040757508254610da9908390309033906001600160a01b0316611035565b610db582600554610f84565b600555519081527fd3c7d1587d8f93bae0fcfc5a820d2187e755a75ec28a06c20a9da047e1b01eb560203392a260016000805160206112a08339815191525580f35b8390346101f35760203660031901126101f35760809181906001600160a01b03610e1f610e77565b168152600160205220908154916001810154916003600283015492015492815194855260208501528301526060820152f35b8390346101f35760203660031901126101f35760209061089e610e72610e77565b610f1c565b600435906001600160a01b0382168203610e8d57565b600080fd5b90601f8019910116810190811067ffffffffffffffff821117610eb457604052565b634e487b7160e01b600052604160045260246000fd5b67ffffffffffffffff8111610eb457601f01601f191660200190565b91908203918211610ef357565b634e487b7160e01b600052601160045260246000fd5b81810292918115918404141715610ef357565b6001600160a01b03166000908152600160205260409020805480158015610f7a575b610f7357610f66610f6f91610f606002670de0b6b3a764000095015442610ee6565b90610f09565b60045490610f09565b0490565b5050600090565b5060045415610f3e565b91908201809211610ef357565b6001600160a01b03908116908115610fec5760008051602061128083398151915280546001600160a01b031981168417909155167f8be0079c531659141344cd1fd0a4f28419497f9722a3daafe3b4186f6b6457e0600080a3565b604051631e4fbdf760e01b815260006004820152602490fd5b6000805160206112a083398151915260028154146110235760029055565b604051633ee5aeb560e01b8152600490fd5b6040516323b872dd60e01b60208201526001600160a01b03928316602482015292909116604483015260648083019390935291815260a081019181831067ffffffffffffffff841117610eb45761108e92604052611173565b565b60018060a01b038116600052600160205260406000209081541515806110df575b6110bf575b50600242910155565b6110c890610f1c565b6110d760038301918254610f84565b9055386110b6565b5060045415156110b1565b60405163a9059cbb60e01b60208201526001600160a01b039092166024830152604480830193909352918152608081019167ffffffffffffffff831182841017610eb45761108e92604052611173565b600080516020611280833981519152546001600160a01b0316330361115b57565b60405163118cdaa760e01b8152336004820152602490fd5b906000602091828151910182855af1156111cf576000513d6111c657506001600160a01b0381163b155b6111a45750565b604051635274afe760e01b81526001600160a01b039091166004820152602490fd5b6001141561119d565b6040513d6000823e3d90fd5b60ff7ff0c57e16840df040f15088dc2f81fe391c3923bec73e23a9662efc9c229c6a005460401c161561120a57565b604051631afcd79f60e31b8152600490fd5b90611243575080511561123157602081519101fd5b60405163d6bda27560e01b8152600490fd5b81511580611276575b611254575090565b604051639996b31560e01b81526001600160a01b039091166004820152602490fd5b50803b1561124c56fe9016d09d72d40fdae2fd8ceac6b6234c7706214fd39c1cd1e609a0528c1993009b779b17422d0df92223018b32b4d1fa46e071723d6817e2486d003becc55f00a264697066735822122097083bdefe2765ad998ea7e628d0ca28ed4ff13ea347d2428621de87bcfa892864736f6c63430008160033",
  "linkReferences": {},
  "deployedLinkReferences": {}
}